:020000040800F2
:10000000582D00204D010008050A00086D09000860
:10001000010A0008350200083F2200080000000025
:10002000000000000000000000000000211D00088A
:100030009504000800000000050B00080D1E0008D4
:1000400067010008670100086701000867010008F0
:1000500067010008670100089904000867010008AB
:1000600067010008670100086701000867010008D0
:1000700067010008670100086701000867010008C0
:1000800067010008670100086701000867010008B0
:1000900067010008670100086701000867010008A0
:1000A0006701000867010008670100086701000890
:1000B0006701000867010008670100086701000880
:1000C0006701000867010008670100086701000870
:1000D0006701000815200008670100086701000893
:1000E0006701000867010008670100086701000850
:1000F0006701000867010008670100086701000840
:1001000067010008290E0008670100086701000860
:100110006701000867010008711E0008BD1E000885
:10012000670100086701000867010008670100080F
:10013000DFF80CD000F06CF800480047293E0008BA
:10014000582D002080F3088870470000064880473B
:1001500006480047FEE7FEE7FEE7FEE7FEE7FEE7AC
:10016000FEE7FEE7FEE7FEE7111E0008310100088A
:100170002DE9F05F0546002092469B4688460646DC
:10018000814640241BE0284641464746224600F06F
:100190002FF853465A46C01A914110D311461846BB
:1001A000224600F016F82D1A67EB01084F4622464A
:1001B0000120002100F00DF817EB00094E41201E30
:1001C000A4F10104DFDC484631462A464346BDE837
:1001D000F09F202A04DB203A00FA02F10020704749
:1001E0009140C2F1200320FA03F319439040704775
:1001F000202A04DB203A21FA02F00021704721FA7C
:1002000002F3D040C2F120029140084319467047E2
:10021000064C074D06E0E06840F0010394E8070053
:1002200098471034AC42F6D3FFF786FFF44200083B
:100230001443000800BFFEE770B500254FF480347A
:1002400000E0641E24B1802000F0CEFD0028F8D02C
:1002500014B90325284670BD40F2FF5000F07CFD24
:100260002846F8E7014600BF0748406B00F045000C
:100270000028F9D040F2FF50034A906310464069CD
:1002800008221040C0B270470080014070B50025C0
:100290001048446B01E00F48446B04F0450000280F
:1002A000F9D004F0040028B10325042000F054FD27
:1002B000284670BD04F0010028B10125012000F09E
:1002C0004BFD2846F5E740F2FF5000F045FD28467B
:1002D000EFE700000080014070B500250B48446B3B
:1002E00001E00A48446B04F045000028F9D004F00E
:1002F000040028B10325042000F02EFD284670BD1F
:1003000040F2FF5000F028FD2846F8E70080014049
:100310002DE9F04106460F464FF000082248456B94
:1003200001E02148456B05F045000028F9D005F0B3
:10033000040038B14FF00308042000F00DFD4046E2
:10034000BDE8F08105F0010030B14FF00108012057
:1003500000F002FD4046F3E700F040FDB04203D05C
:100360004FF010084046EBE740F2FF5000F0F4FC7D
:10037000002000F04DFD044604F4604018B9200C44
:1003800038804046DCE704F4005008B11320D7E77A
:1003900004F4804008B11020D2E704F4004008B112
:1003A0000F20CDE74046CBE70080014070B5002626
:1003B0004FF480350F48446B02E06D1E0D48446BCE
:1003C00004F0450008B9002DF7D115B104F0040080
:1003D00028B10326042000F0BFFC304670BD04F0B5
:1003E000400028B10026402000F0B6FC3046F5E77A
:1003F0003046F3E70080014000F0805111B103491D
:10040000086001E0024948607047000004040240AF
:100410000000024021B1026842F00102026004E0E3
:1004200002684FF6FE731A400260704701460020D2
:10043000002201F0805313B1054B1A6801E0054B0F
:100440001A6802EA01030BB1012000E000207047A6
:10045000000402400000024010B50022026847F686
:10046000F0739A430C6A8B6823430C6923434C69ED
:1004700023438C692343CC6923434C6A23438C6A0E
:1004800023431A430260CB6843600B6883604B6868
:10049000C36010BD704700000748006850B100BF3E
:1004A000054800680028FBD10448006880F001007E
:1004B0000249086070470000000121420C0C014015
:1004C00070B5054600F086F8002410E00B490A14C8
:1004D00002FB041000F014F80848011401FB0406A4
:1004E0003068401C08B1002070BD601CC4B2AC4232
:1004F000ECDB00F045F80120F6E70000007800088A
:1005000030B5044604254FF4302000F06FF805465E
:10051000042D17D10C48006940F002000A49086117
:1005200008464461006940F0400008614FF4302003
:1005300000F05CF805460448006941F6FD7108408A
:1005400001490861284630BD0020024004200B49C3
:10055000C96801F0010109B101200EE00749C9682D
:1005600001F0040109B1022007E00449C96801F063
:10057000100109B1032000E0042070470020024070
:100580000348006940F0800001490861704700009D
:100590000020024070B504460D460426F00200F02B
:1005A00025F80646042E11D10948006940F00100E3
:1005B000074908612580F00200F018F80646044853
:1005C000006941F6FE71084001490861304670BD7E
:1005D00000200240024803494860034848607047D1
:1005E0002301674500200240AB89EFCD00B50246EC
:1005F0000423FFF7ABFF034603E0FFF7A7FF034623
:10060000521E012B01D1002AF7D102B90523184649
:1006100000BD00002DE9FC4107460D4600260024E0
:1006200000200090019008205D490860102048607B
:10063000402088600020C8604FF480600861084650
:1006400000F024FC1020FFF70DFE044614B12046F4
:10065000BDE8FC81534800880004514908603720F8
:100660004860402088600020C8604FF480600861C6
:10067000084600F00BFC3720FFF7F4FD04460CB1F0
:100680002046E5E74FF0FF30474908600820486002
:10069000302088600220C860002008610120486185
:1006A000084600F071FB00203D4908603320486097
:1006B000402088600020C8604FF4806008610846D0
:1006C00000F0E4FB3320FFF7CDFD04460CB12046DB
:1006D000BEE70CE04FF4001000F086FB38B100F0EC
:1006E000CFFB4DF82600761C012E00D906E02F48DE
:1006F000406B40F22A6108400028EBD000BF082080
:1007000000F072FB28B1082000F026FB04242046EC
:100710009EE7022000F068FB28B1022000F01CFBDD
:100720000224204694E7202000F05EFB28B1202020
:1007300000F012FB062420468AE74FF4007000F018
:1007400053FB30B14FF4007000F006FB0724204645
:100750007EE740F2FF5000F0FFFA00980006009993
:1007600001F47F4140EA0120009901F47F0140EA51
:100770001120009940EA1160686001980006019913
:1007800001F47F4140EA0120019901F47F0140EA30
:100790001120019940EA11602860204658E70000C6
:1007A00028290020380000203C290020008001403A
:1007B00008B50121302000F0C7F94FF4F850ADF82A
:1007C000000003208DF8020018208DF80300694610
:1007D000094800F015F80420ADF800006946074804
:1007E00000F00EF80121880200F08EF901210220AC
:1007F00000F08AF908BD000000100140001401401B
:100800002DE9F041024600250026002000230024A7
:10081000002791F803C00CF00F0591F803C00CF00D
:10082000100CBCF1000F03D091F802C04CEA050592
:1008300091F800C0BCF1000F31D0146800202BE00B
:100840004FF0010C0CFA00F3B1F800C00CEA0306FB
:100850009E4220D183004FF00F0C0CFA03F7BC43EB
:1008600005FA03FC4CEA040491F803C0BCF1280F1C
:1008700006D14FF0010C0CFA00FCC2F814C00AE0DB
:1008800091F803C0BCF1480F05D14FF0010C0CFAF0
:1008900000FCC2F810C0401C0828D1D31460B1F885
:1008A00000C0BCF1FF0F34DD546800202EE000F1E1
:1008B000080C4FF0010808FA0CF3B1F800C00CEA7C
:1008C00003069E4221D183004FF00F0C0CFA03F770
:1008D000BC4305FA03FC4CEA040491F803C0BCF1E4
:1008E000280F05D100F1080C08FA0CF8C2F81480A2
:1008F00091F803C0BCF1480F07D100F1080C4FF08C
:10090000010808FA0CF8C2F81080401C0828CED361
:100910005460BDE8F081416170470161704700009B
:1009200008B50121042000F00FF90121880300F02F
:100930000BF94FF40070ADF8000003208DF80200B1
:1009400018208DF8030069460748FFF759FF4FF458
:100950008060ADF8000004208DF80300694602486D
:10096000FFF74EFF08BD00000008014000BFFEE792
:1009700010B50446206807490840B0F1005F08D16F
:100980006068054908602068FFF7DCFB02480068E2
:10099000804710BD0000FE2F3000002010B500F091
:1009A00019F800F005F801F053FB01F011FB10BD40
:1009B00008B50121042000F0C7F80120ADF80000BF
:1009C00004208DF8030069460148FFF719FF08BDB0
:1009D0000008014008B50121082000F0B5F82020EA
:1009E000ADF8000003208DF8020010208DF8030000
:1009F00069460248FFF704FF08BD0000000C0140F3
:100A000000BFFEE7704708B54FF4C06000F05CF827
:100A100036208DF8000001208DF8030000208DF8AD
:100A2000010003208DF80200684600F015F808BDAB
:100A300008B54FF4C06000F047F831208DF8000091
:100A400001208DF801008DF802008DF80300684642
:100A500000F002F808BD000070B5002100230F224D
:100A6000C47804B3154C246804F4E064C4F5E0646D
:100A7000210AC1F10403CA40447804FA03F18478DE
:100A80001440214309010E4C0678A155047804F066
:100A90001F050124AC4005786D11AD0005F1E0257E
:100AA000C5F8004109E0047804F01F050124AC40BA
:100AB000044D0678761145F8264070BD0CED00E037
:100AC00000E400E080E100E002490143024A1160D5
:100AD000704700000000FA050CED00E008B54FF487
:100AE000C060FFF7F1FF25208DF8000000208DF891
:100AF000010001208DF802008DF803006846FFF721
:100B0000ABFF08BD7047000029B1064A5269024395
:100B1000044B5A6104E0034A52698243014B5A6113
:100B2000704700000010024029B1064AD269024312
:100B3000044BDA6104E0034AD2698243014BDA6173
:100B4000704700000010024029B1064A9269024332
:100B5000044B9A6104E0034A92698243014B9A6113
:100B6000704700000010024030B500210022002430
:100B700000232D4D6D6805F00C0121B1042905D02D
:100B8000082923D105E0294D056022E0274D0560A5
:100B90001FE0254D6D6805F47012234D6D6805F456
:100BA0008034022505EB92421CB9214D5543056066
:100BB0000BE01D4D6D6805F400351DB11C4D55430E
:100BC000056002E0194D5543056002E0174D0560D0
:100BD00000BF00BF144D6D6805F0F0010909154D07
:100BE0006B5C0568DD4045600F4D6D6805F4E061A4
:100BF000090A104D6B5C4568DD4085600A4D6D68E3
:100C000005F46051C90A0B4D6B5C4568DD40C56059
:100C1000054D6D6805F44041890B074D6B5CC56857
:100C2000B5FBF3F5056130BD0010024000127A00FB
:100C300000093D0000000020100000207CB50546A2
:100C4000002400200090019000F0E2F800F0007015
:100C500010B10E2420467CBD3D49098888B2694602
:100C6000FFF7D8FC04460CB12046F4E7012D36D13D
:100C7000019800F4802000282ED035480088000418
:100C80003449086037204860402088600020C860F0
:100C9000A8020861084600F0F9F83720FFF7E2FAE9
:100CA00004460CB12046D6E702202A4908600620F7
:100CB0004860402088600020C8604FF48060086170
:100CC000084600F0E3F80620FFF7CCFA04460CB122
:100CD0002046C0E72046BEE725242046BBE7019812
:100CE00000F4803078B31A4800880004194908607D
:100CF00037204860402088600020C8604FF4806042
:100D00000861084600F0C2F83720FFF7ABFA044646
:100D10000CB120469FE700200E490860062048607D
:100D2000402088600020C8604FF480600861084659
:100D300000F0ACF80620FFF795FA04460CB1204607
:100D400089E7204687E7FFE72524204683E7000060
:100D500038000020282900200149886370470000DE
:100D60000080014001498863704700000080014015
:100D70000149086070470000A00030420149086046
:100D8000704700008C05304200210A4B02685A620D
:100D900042689A621A46D16A21F0F701D0E902232B
:100DA0001A4303691A4343691A431143014AD16242
:100DB000704700000080014000200649086048603C
:100DC0008860C86048628862C862034888630020FF
:100DD000C863704700800140FF07C00001480069F8
:100DE000C0B270470080014001460020034A526BA8
:100DF0000A400AB1012000E0002070470080014055
:100E00000248006800F003007047000000800140C5
:100E100008B5014600200090024808440090009860
:100E2000006808BD1480014010B500F0B7FD10BD8A
:100E300029B1064AD26B0243044BDA6304E0034A49
:100E4000D26B8243014BDA6370470000008001409F
:100E500000210A4A516847F6FF629143027D836888
:100E60001A4343681A43C3681A4303681A43036961
:100E70001A431143014A516070470000008001404D
:100E80000148006870470000808001400021094B44
:100E900002689A601A46D1686FF30A01D0E901230B
:100EA0001A43C3681A4303691A431143014AD160C4
:100EB00070470000008001400549096821F00301E6
:100EC000034A116011460968014311607047000030
:100ED0000080014010B543A001F0E2F901224DA1CC
:100EE0004D4802F05BFA4D490870084600780D281D
:100EF00023D14BA001F0D4F90022114645A001F006
:100F00000BFF464908700846007888B94FA001F0E9
:100F1000C7F901223FA1002002F040FA3F490870C2
:100F200001223CA13C4802F039FA3C49087014E027
:100F30004EA001F0B5F900BFFEE73848007848B18F
:100F4000364801784FA001F0ABF958A001F0A8F99C
:100F500000BFFEE75FA001F0A3F968A001F0A0F9CF
:100F6000012270A1724802F047FA2C490870084625
:100F70000078002829D16FA001F092F9724B4FF44C
:100F8000FA6272496A4802F0F2FA24490870084687
:100F90000078A0B96C4801686DA001F081F90024C7
:100FA00005E06A48015D73A001F07AF9641C6648A7
:100FB00000688442F5D371A001F072F908E0174887
:100FC000017870A001F06CF902E074A001F068F9FA
:100FD000574801F091FE01220EA1002002F0DEF937
:100FE00010BD00002A2A2A2A2A2A20D5E2CAC7D2FE
:100FF000BBB8F653504920464C41534820CEC4BCA0
:10100000FECFB5CDB3CAB5D1E9202A2A2A2A2A2A89
:101010000D0A0000303A0000640000201400002097
:10102000A1B7464C415348BBB9C3BBD3D0CEC4BC17
:10103000FECFB5CDB3A3ACBCB4BDABBDF8D0D0B87A
:10104000F1CABDBBAF2E2E2E0D0A0000A1B7464C33
:10105000415348D2D1B3C9B9A6B8F1CABDBBAFCECE
:10106000C4BCFECFB5CDB3A1A30D0A00A1B6A1B6F5
:10107000B8F1CABDBBAFCAA7B0DCA1A3A1B7A1B7E5
:101080000D0A0000A3A1A3A1CDE2B2BF466C61731B
:1010900068B9D2D4D8CEC4BCFECFB5CDB3CAA7B040
:1010A000DCA1A3282564290D0A000000A3A1A3A1A7
:1010B000BFC9C4DCD4ADD2F2A3BA53504920466CA8
:1010C000617368B3F5CABCBBAFB2BBB3C9B9A6A163
:1010D000A30D0A00A1B7CEC4BCFECFB5CDB3B9D223
:1010E000D4D8B3C9B9A6A3ACBFC9D2D4BDF8D0D0A7
:1010F000B6C1D0B4B2E2CAD40D0A00002A2A2A2A04
:101100002A2A20BCB4BDABBDF8D0D0CEC4BCFEB63C
:10111000C1C8A1B2E2CAD42E2E2E202A2A2A2A2AF7
:101120002A0D0A00303A75702E62696E00000000C8
:1011300094100020A1B7B4F2BFAACEC4BCFEB3C9BC
:10114000B9A6A1A30D0A000018000020B8200020B5
:10115000A1B7CEC4BCFEB6C1C8A1B3C9B9A62CB64E
:10116000C1B5BDD7D6BDDACAFDBEDDA3BA25640DB3
:101170000A00000030782578202000000A0A0A0AB8
:1011800000000000A3A1A3A1CEC4BCFEB6C1C8A1AB
:10119000CAA7B0DCA3BA282564290A00A3A1A3A189
:1011A000B4F2BFAACEC4BCFECAA7B0DCA1A30D0A8C
:1011B0000000000010B50248FFF738F910BD00002C
:1011C0000020001030B58BB005460C461348FFF7E1
:1011D00013F900211248FFF71DF9124800900195FC
:1011E00000200290A0080390002004908020059029
:1011F0008000069080000790002008904FF4005077
:10120000099000200A9069460548FFF725F9012159
:101210000348FFF7FFF80BB030BD000000F00010EE
:10122000440402408080014030B58BB005460C4636
:101230001348FFF7E1F800211248FFF7EBF81248D6
:101240000090019510200290A008039000200490C7
:101250008020059080000690800007900020089074
:101260004FF40050099000200A9069460548FFF7A6
:10127000F3F801210348FFF7CDF80BB030BD0000B3
:1012800000F00010440402408080014070B5044624
:10129000002521480068032802D12725284670BD73
:1012A0001D48006838B11C480068012803D01A485E
:1012B000006802282ED1B4F5805F02D12725284688
:1012C000EDE7B4F5006F14D10120FFF7B7FC054638
:1012D00005BB01201149087500200860486088603E
:1012E0004FF40060C860002008610846FFF7B0FDB9
:1012F00010E00020FFF7A2FC05465DB90120074978
:1013000008750020086048608860C8600861084669
:10131000FFF79EFD2846C2E7340000201029002078
:10132000F0B5014600200022BC4B1B7881F85630F6
:10133000BB4B1B88A1F85430BA4B1B681A0E93099B
:101340000B70C2F383034B7002F003038B70B54B39
:101350001B68C3F30742CA70B24B1B88C3F3072252
:101360000A71B04B1A784A715B681A0E1301CB8070
:10137000AC4B5B68C3F30742CB8843EA1213CB80C4
:1013800002F00F030B72A74B9B88C3F30722D3090C
:101390004B72C2F380138B72C2F34013CB72C2F351
:1013A00000130B7300234B739C4B1B681BB19B4BAF
:1013B0001B68012B4FD193071B0D0B61994B1A79B9
:1013C0000B6943EA82030B61964B9B681A0E0B690B
:1013D00043EA92130B61C2F3C2030B7502F00703D9
:1013E0004B75904B9B68C3F3074253098B75C2F34F
:1013F0008203CB7593075B0F0B768A4B1B89C3F374
:1014000007220B7E43EAD2130B760B695B1C002488
:10141000C1E912340B7ED1E912649B1C012505FA47
:1014200003F3DF17A6FB035C04FB03C306FB0733D0
:10143000C1E912530C7A0123A3400B650027D1E9BF
:1014400012560B6DA5FB034C06FB03C305FB0733CC
:10145000C1E912432DE0714B1B68022B29D1714B5E
:101460001A7993069B0A0B616E4B9B681A0E0B69E7
:1014700043EA02230B616B4B9B68C3F307420B6982
:1014800013430B61674B1B89C3F307220B695B1C7A
:101490004FF40074A3FB04344FF480660025A3FBD3
:1014A000067C04FB06C403FB0543C1E912737310F9
:1014B0000B65C2F3801301F8193F93065B0E4B7066
:1014C000584B1A7A4B7843EAD2134B7002F07F03E1
:1014D0008B70544BDB681A0ED309CB70C2F34113E7
:1014E0000B71C2F382034B7193071B0F8B714D4B32
:1014F000DB68C3F307428B7943EA92138B71C2F323
:101500004013CB7100230B7202F001034B72454B69
:101510009B89C3F30722D3098B72C2F38013CB726A
:10152000C2F340130B73C2F300134B73C2F3810376
:101530008B7302F00303CB733A4B1A7B53080B7483
:1015400001234B74384B1B681A0ECA741939364B79
:101550001B68C3F307421402CC85334B1B88C3F3CB
:101560000722CB8D1343CB852F4B1A7814060C63BF
:101570005B681A0E0B6B43EA02440C632A4B5B68F0
:10158000C3F307420B6B43EA02240C63264B9B8890
:10159000C3F307220B6B13430B63234B1A793423DA
:1015A0005A54214B9B681A0E35235A541E4B9B6884
:1015B000C3F3074214068C631B4B1B89C3F307223A
:1015C0008B6B43EA02448C63174B1A7A8B6B43EAAA
:1015D00002248C63144BDB681A0E8B6B13438B63F2
:1015E000114BDB68C3F307423C235B5C43EA1214F4
:1015F0003C235C5413071C0DCC870B4B9B89C3F316
:101600000722CB8F1343CB87074B1A7B5408402309
:101610005C54012441235C54F0BD000034000020E0
:1016200038000020882800209828002008B50020D5
:101630000090684600F074FA08B1FF2008BD0098D9
:10164000C0F34320FAE710B50424FFF7EFFF044688
:10165000042C01D1002010BDFF2C01D10220FAE79B
:101660000120F8E710B50024FFF7E2F9FFF7A0F832
:10167000FFF7A2FB00F0CEF804460CB1204610BDE7
:1016800000F02AF804460CB12046F8E70120104982
:1016900008750020086048608860C86008610846D6
:1016A000FFF7D6FB1CB90B48FFF73AFE044634B9E6
:1016B0000849B1F85410080400F018FA044624B997
:1016C0004FF40060FFF7E2FD04462046D7E7000034
:1016D00010290020B828002038B5002401200090EF
:1016E000FFF78EFB10B92524204638BD444800681A
:1016F000042828D000204349086002204860C02008
:1017000088600020C8604FF4806008610846FFF7D9
:10171000BDFBFEF7BBFD04460CB12046E5E700200B
:10172000FFF776FB384908600420FFF771FB364964
:1017300048600820FFF76CFB334988600C20FFF7F6
:1017400067FB3149C8602E48006858B12C480068D2
:10175000012807D02A480068062803D028480068D6
:10176000022816D100202749086003204860402045
:1017700088600020C8604FF4806008610846FFF769
:1017800085FB69460320FEF7C3FD04460CB12046E5
:10179000ABE71B48006804282ED0BDF800001B49A9
:1017A0000860BDF800000004164908600920486080
:1017B000C02088600020C8604FF48060086108463F
:1017C000FFF764FBFEF762FD04460CB120468CE790
:1017D0000020FFF71DFB0E4908600420FFF718FBEF
:1017E0000B4948600820FFF713FB094988600C206B
:1017F000FFF70EFB0649C8600024204675E700008D
:1018000034000020282900209828002038000020DB
:10181000882800202DE9F04100240026002500271B
:10182000A046B220594908750020086048608860C9
:10183000C86008610846FFF70BFB0320FFF73CFB7D
:101840000120FFF795FA0020514908604860886040
:10185000C8604FF4806008610846FFF717FBFEF789
:10186000EBFC044614B12046BDE8F0814FF4D5707E
:101870004749086008204860402088600020C86010
:101880004FF4806008610846FFF700FBFEF78EFD0D
:1018900004462CB901203F4908604FF0804812E00F
:1018A00000203B49086037204860402088600020C5
:1018B000C8604FF4806008610846FFF7E7FA3720F8
:1018C000FEF7D0FC0446002031490860372048600C
:1018D000402088600020C8604FF48060086108469E
:1018E000FFF7D4FA3720FEF7BDFC0446002C4AD19E
:1018F00036E0002026490860372048604020886094
:101900000020C8604FF4806008610846FFF7BEFA07
:101910003720FEF7A7FC04460CB12046A4E71E487A
:1019200048EA00001A490860292048604020886081
:101930000020C8604FF4806008610846FFF7A6FAEF
:10194000FEF7CAFC04460CB120468DE70020FFF7E5
:101950005FFA0646012080EAD67080F001076D1C10
:101960001FB94FF6FF708542C3D34FF6FF70854213
:1019700002D31B24204677E706F08040061E02D0E3
:1019800002200449086020466EE70000102900206C
:1019900028290020340000200000108010B51148D4
:1019A000006801280BD100200F49886040F24C40AC
:1019B000C8600C20FEF756FC0C49087002E00020BD
:1019C0000A4908704FF48070FFF7CCF900214FF4FA
:1019D0008070FFF72DFA0120054908600348007860
:1019E00010BD00003C0000200080014040000020AD
:1019F000440000202DE9F047814614461D46DDE9EC
:101A00000868002700203249087032490860012028
:101A10003149086000203149C86231480068022815
:101A200008D106020202002320462946FEF7A0FB49
:101A300004460D462B48066010202A494860402085
:101A400088600020C8604FF4806008610846FFF796
:101A50001DFA1020FEF706FC074617B13846BDE810
:101A6000F0874FF0FF302049086008FB06F048601F
:101A7000902088600220C860002008610120486131
:101A80000846FFF781F9174804601220154948609D
:101A9000402088600020C8604FF4806008610846DC
:101AA000FFF7F4F91220FEF7DDFB07460FB13846C9
:101AB000D5E701210802FFF7BBF90120FFF75EF926
:101AC00008FB06F14846FFF77DFB3846C7E70000F4
:101AD00040000020440000203C0000200080014025
:101AE00034000020282900203C29002070B504463D
:101AF00000250A48046007200849486040208860A3
:101B00000020C8604FF4806008610846FFF7BEF906
:101B10000720FEF7A7FB0546284670BD28290020B0
:101B200070B5044600250A48008800040949886009
:101B300040F24D40C8600D20FEF794FB05460DB104
:101B4000284670BD0348406920602846F9E7000038
:101B5000380000200080014010B5002400BFFFF7CE
:101B600029FB30B90748006818B9074800780028F1
:101B7000F5D00548007810B10348007810BD204624
:101B8000FCE70000440000204000002010B50024C5
:101B900000BFFFF70FFB30B90948006818B90948C2
:101BA00000780028F5D00748007810B10548007883
:101BB00010BD40F2FF50FFF7CFF82046F8E70000D5
:101BC00044000020400000202DE9F84381461546DE
:101BD0001E46DDE90878002400200090484908707E
:101BE0004849086001204849086000204749C86208
:101BF00047480068022808D107020202002328464D
:101C00003146FEF7B5FA05460E46424807601020F9
:101C100040494860402088600020C8604FF48060E0
:101C200008610846FFF732F91020FEF71BFB044657
:101C300014B12046BDE8F8833748008800043549D0
:101C4000086037204860402088600020C8604FF45A
:101C5000806008610846FFF719F93720FEF702FB9C
:101C600004460CB12046E5E72A48C0F8008017205A
:101C700028494860402088600020C8604FF4806098
:101C800008610846FFF702F91720FEF7EBFA044651
:101C90000CB12046CEE71F48056019201D49486059
:101CA000402088600020C8604FF4806008610846CA
:101CB000FFF7ECF81920FEF7D5FA04460CB12046E0
:101CC000B8E74FF0FF301549086008FB07F048609F
:101CD000902088600020C8600861012048610846A3
:101CE000FFF752F801210802FFF7A2F80120FFF7E1
:101CF00045F808FB07F14846FFF796FA204699E7B2
:101D000040000020440000203C00002000800140F2
:101D10003400002028290020380000203C29002021
:101D2000704710B500F002F810BD00000CB500209F
:101D3000019000903348006840F4803031490860D9
:101D400000BF3048006800F4003000900198401C4B
:101D50000190009818B90198B0F5A06FF1D1294809
:101D6000006800F4003010B10120009001E0002074
:101D700000900098012843D12348006840F01000EB
:101D8000214908600846006820F003000860084602
:101D9000006840F0020008601A484068194948602D
:101DA0000846406848600846406840F480604860E3
:101DB0000846406820F47C1048600846406840F4BB
:101DC000E81048600846006840F08070086000BF76
:101DD0000C48006800F000700028F9D009484068FD
:101DE00020F00300074948600846406840F00200C0
:101DF000486000BF0348406800F00C000828F9D193
:101E00000CBD00000010024000200240704700009E
:101E100010B51348006840F00100114908600846F9
:101E20004068104908400E494860084600680E495D
:101E300008400B4908600846006820F480200860CC
:101E40000846406820F4FE0048604FF41F00886098
:101E5000FFF767FF4FF000600449086010BD000005
:101E6000001002400000FFF8FFFFF6FE08ED00E062
:101E700010B501210D4800F047F8A8B10C480068E2
:101E8000401C0B4908600846006842F21071884205
:101E900006D120210748FEF73EFD0748FEF768FD02
:101EA0000121024800F021F810BD000000100040A0
:101EB00048000020000C01400078000810B5012106
:101EC000064800F021F840B105480068401C04496C
:101ED00008600121014800F008F810BD0010004022
:101EE0004C000020CA4302827047CA4302827047F6
:101EF00021B1028842F00102028004E002884FF61C
:101F0000FE731A400280704702460020138A0B407D
:101F10000BB1012000E0002070471AB183890B4308
:101F2000838102E083898B4383817047002202888A
:101F30001D4B98420ED01D4B98420BD0B0F1804FF4
:101F400008D01B4B984205D01A4B984202D01A4B2E
:101F5000984204D14FF68F731A404B881A43174B9F
:101F6000984207D0164B984204D04FF6FF431A40D0
:101F7000CB881A4302808B8883850B8803850A4BA4
:101F800098420BD0094B984208D00E4B984205D08E
:101F90000D4B984202D00D4B984201D10B7A03862B
:101FA0000123838270470000002C0140003401406F
:101FB0000004004000080040000C004000100040F9
:101FC000001400400040014000440140004801402E
:101FD0000EB5FEF718FD01211020FEF7A5FD4720E4
:101FE000ADF8000040F2E730ADF80400694608485B
:101FF000FFF79CFF01210648FFF774FF01221146FD
:102000000348FFF78AFF01210148FFF771FF0EBD6A
:102010000010004010B540F22551064800F04BF882
:1020200038B1044800F002F904462146014800F0A6
:1020300002F910BD0038014021B1828942F40052FA
:10204000828104E082894DF6FF731A4082817047D5
:102050001FB5FEF765FCFEF741FD4FF4E13000903F
:102060000020ADF80C000C20ADF80A000020ADF8FF
:102070000800ADF80600ADF804006946064800F017
:1020800069F8012240F22551034800F03EF8012191
:102090000148FFF7D1FF1FBD003801400246002074
:1020A000B1F5007F00D100BF13880B400BB10120B8
:1020B00000E00020704770B5024600240023002590
:1020C000002040F66A16B14200D100BFC1F34215AC
:1020D00001F01F03012606FA03F3012D02D19689B0
:1020E000334006E0022D02D1168A334001E0968A81
:1020F00033400C12012606FA04F41688344013B15A
:102100000CB1012000E0002070BDF0B503460024B2
:1021100000260025002040F66A17B94200D100BF12
:102120001846C1F3421401F01F06012707FA06F50D
:10213000012C01D10C3004E0022C01D1103000E060
:1021400014301AB107682F43076002E00768AF43F5
:102150000760F0BD2DE9F04786B005460E46002425
:10216000A24600BFA1460027B08900B100BF2F469C
:102170002C8A4CF6FF700440F08804432C82AC8912
:102180004EF6F3100440B088318908437189084342
:102190000443AC81AC8A4FF6FF400440B08904434D
:1021A000AC8201A8FEF7E0FC1F48874202D1DDF8AF
:1021B00010A001E0DDF80CA0A88900F4004040B1B7
:1021C0000AEBCA0000EB0A1031684900B0FBF1F8D5
:1021D00007E00AEBCA0000EB0A1031688900B0FB87
:1021E000F1F86420B8FBF0F004012009642101FB40
:1021F0001089A88900F4004040B1322000EBC900EA
:10220000B0FBF1F000F00700044308E0322000EBDF
:1022100009106421B0FBF1F000F00F0004432C81A1
:1022200006B0BDE8F087000000380140014688880C
:10223000C0F308007047C1F308028280704700BFF6
:10224000FEE700002DE9F04706460C46FEF7C2F90E
:1022500000271BE02578641C94F8009045EA0925C6
:1022600029460E480068FEF795F90C48006800887A
:102270001FFA80F8A84502D00020BDE8F087641C52
:1022800006480068801C054908607F1CB7EB560FA4
:10229000E0D3FEF775F90120EFE700002C000020E5
:1022A0000FB4054B10B503A9044A029800F018F8C2
:1022B00010BC5DF814FB0000593C000860000020D1
:1022C00002E008C8121F08C1002AFAD170477047FF
:1022D000002001E001C1121F002AFBD1704700005D
:1022E0002DE9FF4F8DB09B460F460446002606E0C1
:1022F00025280BD05A460F999047641C761C2078ED
:102300000028F5D111B03046BDE8F08F0025A84671
:102310000122984900E0054314F8013F203B02FAEE
:1023200003F00842F7D120782E2817D114F8010FB6
:1023300045F004052A280ED06FF02F022078A0F176
:10234000300109290AD808EB880102EB410100EBB2
:102350000108641CF2E757F8048B641C20786C2891
:102360000DD004DC4C2812D06A2811D104E0742866
:102370000DD07A280CD10AE045F4001507E0617809
:1023800045F48015814202D1641C05F58015641C5A
:102390002278692A45D008DC002AB3D0582A69D0AF
:1023A000632A10D0642A08D13BE0702A67D0732AD0
:1023B00013D0752A5CD0782A5CD010465A460F9903
:1023C0009047761CD3E017F8040B8DF8000000202E
:1023D0008DF80100E946012003E057F8049B4FF017
:1023E000FF3069074FF0000501D40AE06D1C454538
:1023F0000DDA8542FADB19F805100029F6D106E05E
:102400006D1C8542FCDB19F805100029F8D12E441B
:1024100004E019F8010B5A460F9990476D1EF8D247
:10242000A5E00A200021CDE90801C5F302500228E9
:102430000DD001CFC117031E71F100030DDA4FF06B
:10244000000CD0EB0C006CEB01012D2308E0FF1D0C
:1024500027F00707F7E80201EDE72B0504D52B234A
:102460008DF8283001233BE0EB0739D02023F7E734
:102470000A2000E010200021CDE9080107E010202B
:10248000002145F00405CDE908014FF00808C5F327
:10249000025002280FD001CF00214FF0000A2B0775
:1024A0001FD5702A0DD0DDE908C38CF0100C5CEA52
:1024B000030C0CD015E0FF1D27F00707F7E8020119
:1024C000EBE740228DF828204FF0010A0BE050EA9C
:1024D000010306D030238DF828308DF829200223FF
:1024E0009A46582A04D024A20DF120090B9209E043
:1024F00026A2F9E7DDE90823FDF73AFE0B9B9B5C7A
:1025000009F8013D50EA0102F4D1ADEB0900203099
:102510000890680701D44FF001080899884502DD4A
:10252000A8EB010000E000208046002506E00AA894
:102530005A46405D0F9990476D1C761C5545F6DB59
:1025400004E030205A460F999047761CB8F10001FC
:10255000A8F10108F5DC05E019F8010B5A460F99BE
:102560009047761C0899481E08900029F4DC641CEA
:10257000C5E60000092801003031323334353637E2
:1025800038396162636465660000000030313233BF
:10259000343536373839414243444546000000005F
:1025A00070B504460D4600202071401EE0622946A9
:1025B000204601F0C7FC08B1032070BD94F82E122C
:1025C00094F82F0241EA00204AF65521884201D0B2
:1025D0000220F2E794F86900010694F8680041EAE5
:1025E000004194F8670041EA002094F8661008431F
:1025F00020F07F400D49884201D10020DDE794F8AA
:102600008500010694F8840041EA004194F88300B3
:1026100041EA002094F88210084320F07F400349EB
:10262000884201D10020C8E70120C6E74641540096
:10263000024600E0521C107810B110788842F9D19F
:10264000107870470246891E5069801E884201D862
:10265000002070479378906A01FB0300F9E72DE9A9
:10266000F04704468946B9F1000F06D1E76817B173
:102670006069B84215D8012713E04946204601F0A9
:10268000FDFA0646022E02D20120BDE8F087701C3A
:1026900008B93046F9E76069B04201D93046F4E73D
:1026A0004F463D4600BF6D1C6069A84204D8022514
:1026B000BD4201D90020E8E72946204601F0DEFAB4
:1026C000064606B909E0701C08B1012E01D130465A
:1026D000DBE7BD42E7D10020D7E700BF6FF07042D3
:1026E0002946204601F048FC8046B8F1000F08D189
:1026F000B9F1000F05D02A464946204601F03CFCBE
:102700008046B8F1000F0BD1E5602069401C78B11C
:102710002069401E2061607940F00100607107E08F
:10272000B8F1010F02D14FF0FF3000E00120054663
:102730002846AAE72DE9F35F0198D0F8009001E060
:1027400009F1010999F800002F28F9D099F8000043
:102750005C28F5D0009886690B222021304601F0D4
:10276000E7FB00252F46AB464FF0080A00BF58464E
:102770000BF1010B19F80040202C03DD2F2C01D0A8
:102780005C2C00D157E02E2C01D057450DD3BAF167
:10279000080F01D12E2C02D00620BDE8FC9F08278F
:1027A0004FF00B0AA806050EE1E7802C01DB45F08F
:1027B0000305812C01DB9F2C03DDE02C20DBFC2CAE
:1027C0001EDC58460BF1010B19F80080B8F1400FE0
:1027D00002DBB8F17E0F05DDB8F1800F06DBB8F142
:1027E000FC0F03DCAAF10100B84201D80620D4E7AF
:1027F00038467F1C345438467F1C06F8008019E0A8
:10280000214620A0FFF714FF08B10620C5E7412CA0
:1028100004DB5A2C02DC45F0020508E0612C06DBE3
:102820007A2C04DC45F00105A4F12000C4B238463E
:102830007F1C34549BE700BF09EB0B01019801603A
:10284000202C01DC042000E0002004460FB9062003
:10285000A3E73078E52801D105203070BAF1080FE0
:1028600001D1A806050E05F00300012801D144F0AE
:10287000100405F00C00042801D144F00804F4729F
:1028800000208AE7222A2B2C3A3B3C3D3E3F5B5DF1
:102890007C7F0000014606E0002000E0401C4FF66F
:1028A000FF729042FAD30A1EA1F10101F4D17047E0
:1028B0002DE9F04104460E460021204600F00EF9B5
:1028C0000546EDB9002700BF2169206801F03AFBF9
:1028D000054605B113E060690078E52802D060691B
:1028E000007820B9781C0746B04201D107E00027E4
:1028F0000121204600F038F80546002DE4D000BF45
:10290000042D00D107252846BDE8F0812DE9F041CE
:1029100004460021204600F0E1F8054615B128469E
:10292000BDE8F08100BF2169206801F00BFB05467E
:1029300005B116E0666937780FB9042511E0F07A21
:1029400000F0080030B90B223046A16901F0D0FA3E
:1029500000B906E00021204600F006F80546002DEB
:10296000E1D000BF2846DBE72DE9F0410446884668
:10297000E088461CB0B208B1206910B90420BDE857
:10298000F08121684889C11700EBD1614911B6FB7C
:10299000F1F201FB1261002971D12069401C206114
:1029A000E06828B920680089B04268D80420E6E7CA
:1029B00021684889C11700EBD1614911B6FBF1F1DB
:1029C00022689278521E1140002958D1E16820688F
:1029D00001F054F90546012D01D80220CFE7681C0B
:1029E00008B90120CBE720684069A84241D8B8F176
:1029F000000F01D10420C2E7E1682068FFF72FFE35
:102A000005460DB90720BAE7012D01D10220B6E72E
:102A1000681C08B90120B2E7206801F013FC08B176
:102A20000120ACE721684A8901F13000002101F062
:102A30007FFA29462068FFF705FE2168C862002753
:102A40000EE0012021680871206801F0FBFB08B14D
:102A5000012094E72068C06A401C2168C8627F1C7E
:102A600020688078B842ECD82068C06AC01B216812
:102A7000C862E56029462068FFF7E4FD2061E68032
:102A800021684889C11700EBD1614911B6FBF1F209
:102A900001FB12612268303202EB411161610020BA
:102AA0006DE770B5044601212046FFF701FF05469A
:102AB00095B92169206801F045FA054665B92022DB
:102AC0000021606901F034FA0B22D4E9050101F01C
:102AD00022FA012021680871284670BD2DE9F041D5
:102AE00004460E46E680A568012D03D020684069A3
:102AF000A84202D80220BDE8F0812DB920680078F4
:102B0000032801D12068456A45B920680089B04290
:102B100001D80220EFE72068476A24E0216848894D
:102B2000C11700EBD16149112268927801FB02F8CC
:102B300012E02946206801F0A1F80546681C08B992
:102B40000120D8E7022D03D320684069A84201D8AC
:102B50000220D0E7A6EB08064645EAD229462068BF
:102B6000FFF770FD0746E5600FB90220C3E7216853
:102B70004889C11700EBD1614911B6FBF1F1394425
:102B8000216121684889C11700EBD1614911B6FB69
:102B9000F1F201FB12612268303202EB41116161F6
:102BA0000020A8E770B505463DB9FEF75BFD08B902
:102BB000002400E00124204670BD0120FCE7000055
:102BC00010B5034613B1012B19D116E0012904D029
:102BD000022906D003290CD108E00A48806C106055
:102BE00007E00848B0F85000108002E00120108093
:102BF00000BF00BF0024204610BD2046FCE7042093
:102C0000FAE70000B82800202DE9FC4105460E46F1
:102C10001746984615B1012D25D122E01348B0F88A
:102C2000500080B2CDE900081048006D00FB07F1AC
:102C30000A4600233046FEF7DDFE0D490870FEF718
:102C40008BFF0B49087000BFFEF7FDFC0028FBD18D
:102C50000748007808B9002400E001242046BDE8B8
:102C6000FC812046FBE70420F9E70000B82800209B
:102C700050000020014611B1012905D102E00022D7
:102C8000104670471046FCE70120FAE72DE9FC41A9
:102C900005460E461746984615B1012D25D122E06E
:102CA0001348B0F8500080B2CDE900081048006D1C
:102CB00000FB07F10A4600233046FEF785FF0D4969
:102CC0000870FEF763FF0B49087000BFFEF7BBFCFE
:102CD0000028FBD10748007808B9002400E001244F
:102CE0002046BDE8FC812046FBE70420F9E7000010
:102CF000B82800205000002070B50546284600F096
:102D00001EFD044634B9284601F0C5FA04460CB944
:102D100000202860204670BD2DE9F74F90B0914605
:102D20001198012803DD132013B0BDE8F08F10A81F
:102D300001F045F80F900F98002801DA0B20F3E717
:102D4000FA490F9851F820500DB90C20ECE70020FB
:102D500028700F98C0B20C9000200B900C98FFF7D1
:102D600021FF0190019800F0010008B10320DBE78A
:102D7000019800F0040008B10A20D5E705F10A0225
:102D800002210C98FFF71CFF38B96889B0F5805F05
:102D900003DC6889B0F5007F01DA0120C4E700BFD9
:102DA00004AA01210C98FFF70BFF10B904988028A2
:102DB00001D20120B8E7119808B1002000E03F20BF
:102DC00082460498A0EB0A000490A9F1010000EAF1
:102DD000090008B14FF00009B9F1000F1AD1688954
:102DE000C11700EBD15149124FF4FA6292FBF1F195
:102DF000049AB2FBF1F10A914FF0000B01E00BF1E4
:102E0000010BCB4830F81B100A988142F7D8C9480B
:102E100030F81B90B9F5007F02D36889B9FBF0F94F
:102E2000B9F1000F01D14FF00109B9F1800F01D9BB
:102E30004FF080090498B0FBF9F8012640F6F670CF
:102E4000804500D302264FF6F670804500D3032656
:102E5000032E0CD1082000EB880069890844401E2D
:102E6000B0FBF1F7202003900020029019E0012E22
:102E700005D108EB4800401C4008C01C02E04FEAA6
:102E80004800001D074668893844401E6989B0FB28
:102E9000F1F70120039068894FF48041B1FBF0F015
:102EA000029003985044079007983844069002997E
:102EB00006980844059005984844A0EB0A00049938
:102EC000884201D90E202FE709AA03210C98FFF7A9
:102ED00077FE28B9099818B10998B0F5004F01D9C3
:102EE00001200990099905980844401E491E88430D
:102EF000099009990598081A0990032E08D1099993
:102F0000039808440390099907980844079001E042
:102F100009980744DDE90301081AC11B0298081A41
:102F2000B0FBF9F8022E03D140F6F670804505D3C8
:102F3000032E05D14FF6F670804501D20E20F3E640
:102F4000032E02D10C200D9010E0012E06D1049822
:102F5000B0F5803F02D201200D9007E00498B0F553
:102F6000803F01D2042000E006200D9000BF1198A0
:102F700010B1F0200E9043E06A89002105F1300085
:102F800000F0D6FF05F5F77401206070A0700020F6
:102F9000E0700D982071FE206071049850443F212C
:102FA000B0FBF1F0FF21B0FBF1F009903F2109984F
:102FB00041EA9000A0710998E0713F202072002141
:102FC0006172A172E172049820730498010A61731E
:102FD0000498010CA1730498010EE173552185F842
:102FE0002E12AA2185F82F120123002205F13001AB
:102FF0000C98FFF74BFE08B1012095E6F8200E90E3
:1030000005F130046A890021204600F091FF0B226F
:1030100049A1204600F07FFFB5F80AB084F80BB054
:103020004FEA1B21217384F80D900398A073039835
:10303000010AE17301202074032E01D1002001E078
:103040004FF40070834684F811B04FEA1B21A1743D
:103050000498B0F5803F05D20498E0740498010A02
:10306000217510E0049884F820000498C0F307212B
:10307000212001550498C0F30741222001550498EE
:10308000010E232001550E9860753F202076002107
:103090006176FF20A076E17684F81CA04FEA1A2121
:1030A00061774FEA1A41A1774FEA1A61E17700F0A0
:1030B00084FE0990032E4BD1099884F843000998A7
:1030C000C0F30721442001550998C0F3074145206A
:1030D00001550998010E4620015584F82470C7F364
:1030E000072125200155C7F3074126200155390E38
:1030F00027200155022084F82C0000212D200155A5
:103100002E2001552F200155012084F83000312058
:103110000155062084F8320033200155802084F8C0
:103120004000292084F8420013220BE054000020C4
:10313000C8420008DE420008EBFE904D53444F5356
:10314000352E30008AA104F1470000F0E4FE1FE0B4
:10315000099884F827000998C0F307212820015511
:103160000998C0F30741292001550998010E2A202A
:103170000155A775390AE175802084F824002920BB
:1031800084F8260013227FA104F12B0000F0C3FE77
:10319000552084F8FE01AA2140F2FF1001550123B9
:1031A000524621460C98FFF771FD08B10120BBE59E
:1031B000032E06D101230AF1060221460C98FFF7DF
:1031C00065FD079808904FF0000B5FE06A890021C9
:1031D000204600F0ADFE0E980990032E14D0012E6B
:1031E00001D16D4801E06FF0FF0009990843099093
:1031F000099820700998000A60700998000CA07066
:103200000998000EE07019E0099860F0FF0009903D
:10321000099820700998000A60700998000CA07045
:103220000998000EE070FF202071FF216171A171EB
:10323000E17120726172A1720F21E1720898411C44
:1032400002460123089121460C98FFF71FFD08B1A3
:10325000012069E56A890021204600F069FE01200D
:1032600009900EE00898411C02460123089121466E
:103270000C98FFF70BFD08B1012055E50998401C9B
:1032800009900998B842EDD30BF1010BBBF1000F87
:103290009CD0032E01D1484600E00298834600BF2F
:1032A0000898411C02460123089121460C98FFF71B
:1032B000EDFC08B1012037E5ABF10100B0F1000BE6
:1032C000EED1032E49D15220207060706120A07091
:1032D0004120E070722084F8E401722140F2E51090
:1032E00001554121401C01556121401C0155A8F1A7
:1032F000010084F8E801C0F3072140F2E91001550C
:10330000A8F10100C0F307414FF4F5700155A8F191
:103310000100010E40F2EB100155022084F8EC018F
:10332000002140F2ED100155401C0155401C015593
:10333000552084F8FE01AA2140F2FF100155012317
:103340000AF1010221460C98FFF7A0FC01230AF1C3
:10335000070221460C98FFF799FC002211460C98B1
:10336000FFF72EFC08B10120DEE40020DCE40000C1
:103370004E4F204E414D45202020204641543332AF
:10338000202020004E4F204E414D45202020204639
:10339000415420202020200000FFFF00F7B582B01C
:1033A00016460398019001A800F009FD0546002D7E
:1033B00002DA0B2005B0F0BD0E4850F825400CB1E4
:1033C00000202070029810B100200299087009496D
:1033D000029841F82500029808B1012E01D0002082
:1033E000E8E7002203A902A800F002FA07463846DF
:1033F000E0E70000540000202DE9F7438AB00546BD
:1034000016461DB909200DB0BDE8F08300202860E4
:1034100006F01F0626F001020BA903A800F0E8F948
:103420000746002F72D1CDF824D003A80B9900F0E5
:10343000CBFB0746089C0FB904B9062706F01C0011
:1034400000285CD04FB1042F03D103A8FFF729FB5C
:10345000074646F00806089C09E0E07A00F01100F3
:1034600008B1072703E006F0040000B10827002F89
:1034700055D106F00800002851D000F09EFC80468F
:1034800084F80E804FEA1821E1734FEA1841217445
:103490004FEA1861617484F816804FEA1821E175CB
:1034A0004FEA184121764FEA186161760020E072F8
:1034B000207700216177A177E1772146039800F01A
:1034C000A3FC81460021204600F050FE0120039914
:1034D0000871B9F1000F22D00398D0F82C8049462A
:1034E000039800F00DFE0746CFB9A9F1010003993A
:1034F000C8604146039800F025FD07460FE077B904
:10350000E07A00F0100010B1042708E02DE006F08A
:10351000020020B1E07A00F0010000B1072747B9AE
:1035200006F0080008B146F020060398C06AE8617A
:103530002C62D7B9AE710020E8712146039800F0E3
:1035400063FC2861E07F0106A07F41EA0041607FC3
:1035500041EA0020217F0843E8600020A860A861BC
:10356000039828602868C088A88038464BE72DE972
:10357000FF4F85B0044615469A46DDF818B0002086
:10358000CAF80000204600F086FE0490049818B1A6
:10359000049809B0BDE8F08FE07908B1E079F8E768
:1035A000A07900F0010008B90720F2E7D4E9021081
:1035B000401A02900298854200D9029DBAE0216823
:1035C0004989A068B0FBF1F201FB1200002877D115
:1035D00021684989A068B0FBF1F021688978491E0B
:1035E000084000F0FF09B9F1000F17D1A06810B929
:1035F0002069039004E06169206800F03FFB0390BC
:103600000398022802D20220E071C2E70398401C0E
:1036100010B90120E071BCE703986061616920681E
:10362000FFF710F8064616B90220E071B1E74E44E4
:1036300020684089B5FBF0F8B8F1000F2DD009EBF8
:10364000080021688978884203D920688078A0EB37
:10365000090821684878434632465946FFF7D4FAAC
:1036600010B10120E07194E7A07900F0400078B13A
:10367000A069801B40450BD2A169891B23685B8927
:1036800001FB03B021684A8904F1240100F043FCE6
:103690002068408900FB08F742E0A069B04220D0D2
:1036A000A07900F0400080B121684878012304F13E
:1036B0002401A269FFF7EAFA18B10120E07168E776
:1036C00010E0A07920F04000A07121684878012323
:1036D000324604F12401FFF797FA10B10120E0719E
:1036E00057E7A66121684989A068B0FBF1F201FBA8
:1036F0001200216849890F1AAF4200D92F4621686C
:103700004989A068B0FBF1F201FB120104F1240029
:1037100008443A4601460190584600F0FCFB00BFC1
:10372000BB44A0683844A060DAF800003844CAF806
:103730000000ED1B002D7FF442AF002029E72DE9AA
:10374000F0410446204600F0A6FD0746002F4CD16C
:10375000A07900F02000002847D0A07900F04000B8
:1037600078B121684878012304F12401A269FFF7A8
:103770008DFA10B10120BDE8F081A07920F0400061
:10378000A071E169206800F0DDFB0746002F2CD115
:10379000256AE87A40F02000E872207B2877A0892B
:1037A000010A6977E068010CA977E068010EE97702
:1037B0002846216900F0DAFC00F0FFFA0646AE75F3
:1037C000310AE975310C2976310E69760020A8742A
:1037D0000021E974A07920F02000A0710120216867
:1037E0000871206800F0CAFC07463846C3E70000AD
:1037F0002DE9F74F8AB000210A9801600B9800F07C
:10380000DEFA09900998002803DA0B200DB0BDE814
:10381000F08FE949099851F820400CB90C20F5E7E0
:103820000A980460207878B16078FFF723FA81461F
:1038300009F0010040B90C9820B109F0040008B16A
:103840000A20E3E70020E1E700202070099860707B
:103850006078FFF7A7F9814609F0010008B103205D
:10386000D4E70C9820B109F0040008B10A20CDE794
:10387000607804F10A020221FFF7A2F938B96089E1
:10388000B0F5007F03DB6089B0F5805F01DD0120CA
:10389000BCE7002739462046FEF782FE0546012D8B
:1038A00001D09DBB32E000261AE004F5F77000EB72
:1038B000061898F8040070B198F80B00010698F803
:1038C0000A0041EA004198F8090041EA002098F80E
:1038D0000810084300E0002002A941F82600761CE9
:1038E000042EE2D3002606B1761E00BF02A850F8CF
:1038F000267027B139462046FEF752FE00E002202E
:1039000005461DB1701C06460428EFD3032D01D1D6
:1039100001207BE70DB10D2078E73B20015D94F895
:103920003C0041EA00206189884201D00D206DE70A
:103930004620015D94F8470041EA002ABAF1000FE1
:103940000ED194F85700010694F8560041EA004160
:1039500094F8550041EA002094F8541040EA010A16
:10396000C4F818A04020005DE070E078012804D081
:10397000E078022801D00D2048E7E0780AFB00FA41
:103980003D20005DA070A07818B1A078411E0840CD
:1039900008B10D203AE74120015D94F8420041EA68
:1039A000002020816089C11700EBD1614911228973
:1039B00092FBF1F301FB132109B10D2026E743200F
:1039C000015D94F8440041EA00200890089870B91D
:1039D00094F85300010694F8520041EA004194F82B
:1039E000510041EA002094F85010084308903E200E
:1039F000015D94F83F0041EA00200190019808B968
:103A00000D2003E76089C11700EBD16149112289BC
:103A100092FBF1F20199514411440791DDE907103D
:103A2000884201D20D20F1E6DDE90710401AA178A5
:103A3000B0FBF1FBBBF1000F01D10D20E6E6012543
:103A400040F6F670834500D302254FF6F6708345A5
:103A500000D303250BF102006061E761019838444F
:103A6000206207983844A062032D16D1208908B13E
:103A70000D20CBE694F85F00010694F85E0041EA61
:103A8000004194F85D0041EA002094F85C1008437E
:103A9000606260698000069014E0208908B90D20FA
:103AA000B4E6206A50446062022D02D16069400091
:103AB00007E0207D00F00100616901EB410100EBAE
:103AC000510006906089401E069908446189B0FB48
:103AD000F1F0A169884201D90D2097E64FF0FF303F
:103AE0002061E06080206071032D5AD194F860104D
:103AF00094F8610041EA0020012852D1791C204647
:103B000000F020FAE8BB0020607194F82E1294F8BF
:103B10002F0241EA00204AF65521884241D1332044
:103B2000005D01063220005D41EA00413120005D68
:103B300041EA002094F8301008432049884230D1EF
:103B400094F81702010694F8160241EA004194F82D
:103B5000150241EA002094F81412084318498842DB
:103B60001FD194F81B02010694F81A0241EA0041A1
:103B700094F8190241EA002094F8181208432061D1
:103B800000E00EE094F81F02010694F81E0241EADC
:103B9000004194F81D0241EA002094F81C120843E9
:103BA000E060257007480088401C80B20549088005
:103BB000E08000202AE600005400002052526141BB
:103BC000727241615C0000202DE9F34104460198C6
:103BD00000782F2803D0019800785C2802D1019842
:103BE000401C01900020A06001980078202807D296
:103BF00000212046FEF772FF05460020606128E0A4
:103C000000BF01A92046FEF795FD054605B11FE05E
:103C10002046FEF77BFE0546A069C67A3DB1042D1D
:103C200004D100BF06F0040000B9052510E006F03D
:103C3000040000B10CE06769F87A00F0100008B9E0
:103C4000052505E03946206800F0DEF8A060D8E7D9
:103C500000BF2846BDE8FC8170B504460D46E1B2C0
:103C60000548FEF7E8FA00BF80210348FEF716FA80
:103C70000028F9D0204670BD003801402DE9F05FE2
:103C800004460D46022D02D36069A84202D84FF0C7
:103C900001098FE04FF0FF392078012804D0022875
:103CA0003CD003287ED157E02F4607EB57076089A9
:103CB000B7FBF0F0216A00EB010A5146204600F004
:103CC00041F900B175E038467F1C6189B0FBF1F223
:103CD00001FB120104F1300010F801806089B7FB8C
:103CE000F0F0216A00EB010A5146204600F02AF963
:103CF00000B15EE06089B7FBF0F100FB117104F1E7
:103D00003000405C48EA002805F0010010B14FEA9D
:103D1000181001E0C8F30B0081464AE0B4F80AA08D
:103D20000AEBDA704010B5FBF0F0216A00EB010BF2
:103D30005946204600F006F900B13AE06800618972
:103D4000B0FBF1F201FB120104F130000E183078E3
:103D5000717840EA01292CE0B4F80AA04FEAEA7031
:103D60000AEB90708010B5FBF0F0216A00EB010BBC
:103D70005946204600F0E6F800B11AE0A800618933
:103D8000B0FBF1F201FB120104F130000E18F078E3
:103D90000006B17840EA0140717840EA01203178AC
:103DA000084300E002E020F0704902E04FF0010912
:103DB00000BF00BF4846BDE8F09F0020704770B5C7
:103DC00002464FF0FF301568E5B1116800E0491C6C
:103DD0000D78212D02D30D783A2DF8D10D783A2D9A
:103DE0000FD1146814F8015BA5F130030A2B07D238
:103DF0008C4205D1022B03D218464D1C2946156072
:103E000070BD002000BFFBE710B502468C7ECB7E64
:103E100044EA03201378032B05D10C7D4B7D44EA43
:103E2000032340EA034010BD00240025FCF7B6FD43
:103E3000FDF750F820211648FCF76DFD6420FEF7D1
:103E400029FD20211248FCF768FD6420FEF722FDC1
:103E500010A0FEF725FA0A20FCF732FB04468CB1CD
:103E600012A0FEF71DFA164916480068FEF7EAF997
:103E700005461DB114A0FEF713FA06E015A0FEF7E3
:103E80000FFA02E016A0FEF70BFA00BFFEE70000F3
:103E9000000C0140BFAACABCB2C1B3FDC4DAB2BFB4
:103EA000464C4153482E2E2E0A000000BFAACABC21
:103EB000C9FDBCB6B3CCD0F22E2E2E0A00000000F5
:103EC000B820002018000020C9FDBCB6B3C9B9A6AF
:103ED000A3A10A00C9FDBCB6CAA7B0DCA3A10A0011
:103EE000B2C1B3FDC9C8C7F8CAA7B0DCA3A10A0014
:103EF000F0B503461C460D46002000BF161EA2F179
:103F0000010207D014F8017B15F801CBA7EB0C06D2
:103F1000301EF3D0F0BD70B503460C4603E014F834
:103F2000015B03F8015B151EA2F10102F7D170BD20
:103F300030B5034601E003F8011B141EA2F1010293
:103F4000F9D130BD70B504460D460026E06AA8429E
:103F500010D0204600F076F906465EB9607801235D
:103F60002A4604F13001FEF74FFE10B14FF0FF3545
:103F70000126E562304670BD2DE9F05F04460E462D
:103F80001746022E02D36069B04202D84FF00208F1
:103F9000B3E02078012804D0022852D0032872D13F
:103FA00072E0B14609EB59096089B9FBF0F0216A6A
:103FB00000EB010A51462046FFF7C4FF8046B8F1E6
:103FC000000F00D098E0484609F101096189B0FB73
:103FD000F1F201FB120104F130000D1806F00100AE
:103FE00020B1F9B2287861F31F1000E0384628703C
:103FF000012020716089B9FBF0F0216A00EB010A11
:1040000051462046FFF79EFF8046B8F1000F00D0D2
:1040100072E06089B9FBF0F100FB119104F130000E
:104020000D1806F0010010B1C7F3071005E028785D
:1040300000F0F000C7F3032108432870012020712D
:104040005AE0B4F80AA00AEBDA704010B6FBF0F0C0
:10405000216A00EB010B59462046FFF773FF8046AB
:10406000B8F1000F00D047E070006189B0FBF1F2B9
:1040700001FB120104F130000D182F70380A68702E
:104080000120207138E034E0B4F80AA04FEAEA7069
:104090000AEB90708010B6FBF0F0216A00EB010B88
:1040A00059462046FFF74EFF8046B8F1000F00D07A
:1040B00022E0B0006189B0FBF1F201FB120104F1D2
:1040C00030000D18E8780006A97840EA01406978C8
:1040D00040EA01202978084300F0704007432F7020
:1040E000380A6870380CA870380EE870012020710A
:1040F00002E04FF0020800BF00BF4046BDE8F09F5D
:104100002DE9F04104460E46022E02D36069B0420A
:1041100001D8022727E0002721E031462046FFF79B
:10412000ADFD054605B91DE0012D01D1022719E0BD
:10413000681C08B9012715E0002231462046FFF728
:104140001BFF074607B10DE02069401C30B1206914
:10415000401C2061607940F0010060712E4660696A
:10416000B042DAD800BF3846BDE8F08181760B0A4C
:10417000C3760A0C02750B0E4375704770B5044682
:10418000204600F05FF80546002D59D1207803281D
:104190004FD1607901284CD16289002104F13000AF
:1041A000FFF7C6FE552184F82E12AA2184F82F129B
:1041B000522084F8300052213120015561213220F3
:1041C0000155412133200155722184F8141284F8DD
:1041D0001512412184F81612612184F81712217CEE
:1041E00084F81812208A010A84F819122069010C37
:1041F00084F81A122069010E84F81B12217B84F8BE
:104200001C12A089010A84F81D12E068010C84F8D0
:104210001E12E068010E84F81F12E069401CE06283
:104220006078012304F13001E26AFEF72FFD0020DF
:104230006071607800221146FEF7C2FC00B10125D2
:10424000284670BD2DE9F041044600272079F8B1D9
:10425000E56A607801232A4604F13001FEF716FD75
:1042600008B1012714E000202071206A281AA169F2
:1042700088420DD2E67809E0A06905446078012300
:104280002A4604F13001FEF701FD761E022EF3D21C
:104290003846BDE8F08170B505462C4684B12068EB
:1042A00070B12068007858B12068C088A188884221
:1042B00006D121684878FEF7DDFC00F0010008B166
:1042C000092070BD0020FCE700040002000180000E
:1042D00040002000100008000400020000000080E0
:1042E00000400020001000080040002000100008DE
:1042F00000040002144300080000002064000000D5
:10430000C02200087843000864000020F42C00005C
:10431000D02200080000000001020304010203048F
:10432000060708090204060800000000000000005B
:104330000D0AD0C2BDA8CEC4BCFE0D0A000000000C
:1043400000780008000000000000000000000000ED
:10435000000000000000000000000000000000005D
:10436000000000000000000000000000000000004D
:08437000000000000000000045
:0400000508000131BD
:00000001FF
