:020000040800F2
:10000000602D00204D0100086D0B00086D0A0008EE
:10001000690B000861020008DB24000800000000F2
:10002000000000000000000000000000F91E0008B1
:10003000C1040008000000006D0C0008E51F000866
:1000400067010008670100086701000867010008F0
:100050006701000867010008C5040008670100087F
:1000600067010008670100086701000867010008D0
:1000700067010008670100086701000867010008C0
:1000800067010008670100086701000867010008B0
:1000900067010008670100086701000867010008A0
:1000A0006701000867010008670100086701000890
:1000B0006701000867010008670100086701000880
:1000C0006701000867010008670100086701000870
:1000D0006701000815220008670100086701000891
:1000E0006701000867010008670100086701000850
:1000F0006701000867010008670100086701000840
:100100006701000801100008670100086701000886
:10011000670100086701000849200008BD200008A9
:10012000670100086701000867010008670100080F
:10013000DFF80CD000F06CF800480047C140000820
:10014000602D002080F30888704700000648804733
:1001500006480047FEE7FEE7FEE7FEE7FEE7FEE7AC
:10016000FEE7FEE7FEE7FEE7E91F000831010008B1
:100170002DE9F05F0546002092469B4688460646DC
:10018000814640241BE0284641464746224600F06F
:100190002FF853465A46C01A914110D311461846BB
:1001A000224600F016F82D1A67EB01084F4622464A
:1001B0000120002100F00DF817EB00094E41201E30
:1001C000A4F10104DFDC484631462A464346BDE837
:1001D000F09F202A04DB203A00FA02F10020704749
:1001E0009140C2F1200320FA03F319439040704775
:1001F000202A04DB203A21FA02F00021704721FA7C
:1002000002F3D040C2F120029140084319467047E2
:10021000064C074D06E0E06840F0010394E8070053
:1002200098471034AC42F6D3FFF786FFAC45000880
:10023000CC45000808B50121042000F049FD4FF429
:100240008070ADF8000003208DF8020010208DF8BA
:1002500003006946014800F04DFB08BD000801405D
:1002600000BFFEE770B500254FF4803400E0641E47
:1002700024B1802000F0A4FE0028F8D014B9032592
:10028000284670BD40F2FF5000F052FE2846F8E7C5
:10029000014600BF0748406B00F045000028F9D038
:1002A00040F2FF50034A9063104640690822104014
:1002B000C0B270470080014070B500251048446B03
:1002C00001E00F48446B04F045000028F9D004F029
:1002D000040028B10325042000F02AFE284670BD42
:1002E00004F0010028B10125012000F021FE28467C
:1002F000F5E740F2FF5000F01BFE2846EFE7000054
:100300000080014070B500250B48446B01E00A48AD
:10031000446B04F045000028F9D004F0040028B133
:100320000325042000F004FE284670BD40F2FF5073
:1003300000F0FEFD2846F8E7008001402DE9F0417D
:1003400006460F464FF000082248456B01E0214861
:10035000456B05F045000028F9D005F0040038B1E0
:100360004FF00308042000F0E3FD4046BDE8F081B3
:1003700005F0010030B14FF00108012000F0D8FD78
:100380004046F3E700F016FEB04203D04FF01008ED
:100390004046EBE740F2FF5000F0CAFD002000F0BD
:1003A00023FE044604F4604018B9200C388040460F
:1003B000DCE704F4005008B11320D7E704F48040D0
:1003C00008B11020D2E704F4004008B10F20CDE7B7
:1003D0004046CBE70080014070B500264FF48035E1
:1003E0000F48446B02E06D1E0D48446B04F045005D
:1003F00008B9002DF7D115B104F0040028B1032687
:10040000042000F095FD304670BD04F0400028B196
:100410000026402000F08CFD3046F5E73046F3E73B
:100420000080014000F0805111B10349086001E0F3
:100430000249486070470000040402400000024086
:1004400021B1026842F00102026004E002684FF646
:10045000FE731A400260704701460020002201F03E
:10046000805313B1054B1A6801E0054B1A6802EA84
:1004700001030BB1012000E000207047000402409E
:100480000000024010B50022026847F6F0739A435C
:100490000C6A8B6823430C6923434C6923438C69A2
:1004A0002343CC6923434C6A23438C6A23431A4376
:1004B0000260CB6843600B6883604B68C36010BD0B
:1004C000704700000748006850B100BF0548006849
:1004D0000028FBD10448006880F001000249086050
:1004E00070470000000121420C0C014070B5054628
:1004F00000F086F8002410E00B490A1402FB0410F7
:1005000000F014F80848011401FB04063068401C90
:1005100008B1002070BD601CC4B2AC42ECDB00F03E
:1005200045F80120F6E700000078000830B50446E1
:1005300004254FF4302000F06FF80546042D17D144
:100540000C48006940F002000A490861084644610D
:10055000006940F0400008614FF4302000F05CF882
:1005600005460448006941F6FD71084001490861EB
:10057000284630BD0020024004200B49C96801F024
:10058000010109B101200EE00749C96801F0040129
:1005900009B1022007E00449C96801F0100109B15E
:1005A000032000E004207047002002400348006957
:1005B00040F08000014908617047000000200240BF
:1005C00070B504460D460426F00200F025F80646F4
:1005D000042E11D10948006940F001000749086163
:1005E0002580F00200F018F806460448006941F63C
:1005F000FE71084001490861304670BD002002408C
:100600000248034948600348486070472301674532
:1006100000200240AB89EFCD00B502460423FFF76E
:10062000ABFF034603E0FFF7A7FF0346521E012B73
:1006300001D1002AF7D102B90523184600BD0000F8
:100640002DE9FC4107460D460026002400200090BD
:10065000019008205D4908601020486040208860B3
:100660000020C8604FF480600861084600F0FAFC82
:100670001020FFF70DFE044614B12046BDE8FC81B2
:1006800053480088000451490860372048604020E2
:1006900088600020C8604FF480600861084600F060
:1006A000E1FC3720FFF7F4FD04460CB12046E5E7F6
:1006B0004FF0FF30474908600820486030208860CC
:1006C0000220C8600020086101204861084600F04F
:1006D00047FC00203D490860332048604020886086
:1006E0000020C8604FF480600861084600F0BAFC42
:1006F0003320FFF7CDFD04460CB12046BEE70CE0E9
:100700004FF4001000F05CFC38B100F0A5FC4DF88F
:100710002600761C012E00D906E02F48406B40F2DF
:100720002A6108400028EBD000BF082000F048FCF8
:1007300028B1082000F0FCFB042420469EE702209C
:1007400000F03EFC28B1022000F0F2FB022420461B
:1007500094E7202000F034FC28B1202000F0E8FBD2
:10076000062420468AE74FF4007000F029FC30B1DF
:100770004FF4007000F0DCFB072420467EE740F2D7
:10078000FF5000F0D5FB00980006009901F47F416E
:1007900040EA0120009901F47F0140EA112000990C
:1007A00040EA1160686001980006019901F47F41F8
:1007B00040EA0120019901F47F0140EA11200199EA
:1007C00040EA11602860204658E7000030290020E8
:1007D0003C000020442900200080014008B5012190
:1007E000302000F075FA4FF4F850ADF80000032007
:1007F0008DF8020018208DF803006946094800F0C2
:1008000079F80420ADF800006946074800F072F856
:100810000121880200F02CFA0121022000F028FAC0
:1008200008BD0000001001400014014010B504464E
:100830002948844208D10121042000F059FA0021FE
:10084000042000F055FA46E02448844208D10121F2
:10085000082000F04DFA0021082000F049FA3AE0A3
:100860001F48844208D10121102000F041FA0021E4
:10087000102000F03DFA2EE01A48844208D10121F0
:10088000202000F035FA0021202000F031FA22E08B
:100890001548844208D10121402000F029FA0021A6
:1008A000402000F025FA16E01048844208D10121CA
:1008B000802000F01DFA0021802000F019FA0AE0E3
:1008C0000B48844207D10121801500F011FA002164
:1008D000A01500F00DFA10BD00080140000C014009
:1008E000001001400014014000180140001C0140AC
:1008F000002001402DE9F04102460025002600209D
:1009000000230024002791F803C00CF00F0591F894
:1009100003C00CF0100CBCF1000F03D091F802C022
:100920004CEA050591F800C0BCF1000F31D0146805
:1009300000202BE04FF0010C0CFA00F3B1F800C0DE
:100940000CEA03069E4220D183004FF00F0C0CFAF4
:1009500003F7BC4305FA03FC4CEA040491F803C016
:10096000BCF1280F06D14FF0010C0CFA00FCC2F8C4
:1009700014C00AE091F803C0BCF1480F05D14FF054
:10098000010C0CFA00FCC2F810C0401C0828D1D39E
:100990001460B1F800C0BCF1FF0F34DD54680020D2
:1009A0002EE000F1080C4FF0010808FA0CF3B1F842
:1009B00000C00CEA03069E4221D183004FF00F0CC9
:1009C0000CFA03F7BC4305FA03FC4CEA040491F863
:1009D00003C0BCF1280F05D100F1080C08FA0CF88F
:1009E000C2F8148091F803C0BCF1480F07D100F1A0
:1009F000080C4FF0010808FA0CF8C2F81080401CEF
:100A00000828CED35460BDE8F081024600209368E8
:100A10000B400BB1012000E000207047416170479E
:100A200008B50121042000F053F90121880300F0EA
:100A30004FF94FF40070ADF8000003208DF802006C
:100A400018208DF8030069460748FFF753FF4FF45D
:100A50008060ADF8000004208DF80300694602486C
:100A6000FFF748FF08BD00000008014000BFFEE797
:100A700010B50446206807490840B0F1005F08D16E
:100A80006068054908602068FFF75CFB0248006861
:100A9000804710BD0000FE2F3400002072B6704762
:100AA00010B500F045F800F007F801F0D1FB01F0B7
:100AB0008FFBFFF7BFFB10BD08B50121042000F03C
:100AC00007F90120ADF8000004208DF80300694605
:100AD0000148FFF70FFF08BD0008014010B50121D4
:100AE0001048FFF792FF98B10F480078022808D10C
:100AF00001200E4908700C480078401E0A49087011
:100B00000CE009480078012808D10749087005E081
:100B10000220054908700020044908700348007845
:100B200010BD00000008014031000020300000200E
:100B300008B50121082000F0CBF82020ADF8000016
:100B400003208DF8020010208DF803006946054847
:100B5000FFF7D0FE0120ADF8000069460148FFF71D
:100B6000C9FE08BD000C014000BFFEE7704708B594
:100B70004FF4C06000F05CF836208DF800000120D2
:100B80008DF8030000208DF8010003208DF802008D
:100B9000684600F015F808BD08B54FF4C06000F0D5
:100BA00047F831208DF8000001208DF801008DF804
:100BB00002008DF80300684600F002F808BD00004E
:100BC00070B5002100230F22C47804B3154C2468AB
:100BD00004F4E064C4F5E064210AC1F10403CA40EE
:100BE000447804FA03F184781440214309010E4C3F
:100BF0000678A155047804F01F050124AC4005785F
:100C00006D11AD0005F1E025C5F8004109E004785B
:100C100004F01F050124AC40044D0678761145F818
:100C2000264070BD0CED00E000E400E080E100E053
:100C300002490143024A1160704700000000FA05B2
:100C40000CED00E008B54FF4C060FFF7F1FF252080
:100C50008DF8000000208DF8010001208DF80200C1
:100C60008DF803006846FFF7ABFF08BD7047000032
:100C700029B1064A52690243044B5A6104E0034A0F
:100C800052698243014B5A617047000000100240D4
:100C900029B1064AD2690243044BDA6104E0034AEF
:100CA000D2698243014BDA617047000000100240B4
:100CB00029B1064A12690243044B1A6104E0034A4F
:100CC00012698243014B1A61704700000010024014
:100CD00029B1064A92690243044B9A6104E0034A2F
:100CE00092698243014B9A617047000000100240F4
:100CF00029B1064AD2680243044BDA6004E0034A91
:100D0000D2688243014BDA60704700000010024055
:100D100030B500210022002400232D4D6D6805F020
:100D20000C0121B1042905D0082923D105E0294D62
:100D3000056022E0274D05601FE0254D6D6805F434
:100D40007012234D6D6805F48034022505EB924244
:100D50001CB9214D554305600BE01D4D6D6805F430
:100D600000351DB11C4D5543056002E0194D55433A
:100D7000056002E0174D056000BF00BF144D6D68AF
:100D800005F0F0010909154D6B5C0568DD40456013
:100D90000F4D6D6805F4E061090A104D6B5C456804
:100DA000DD4085600A4D6D6805F46051C90A0B4D40
:100DB0006B5C4568DD40C560054D6D6805F44041DC
:100DC000890B074D6B5CC568B5FBF3F5056130BD5C
:100DD0000010024000127A0000093D0000000020CF
:100DE0001000002010B5074801F058FA0648FFF738
:100DF0001DFD0648FFF71AFD0548FFF717FDFFF731
:100E00004DFE10BD0038014000080140000C0140BB
:100E1000001001407CB505460024002000900190A0
:100E200000F0E2F800F0007010B10E2420467CBD06
:100E30003D49098888B26946FFF702FC04460CB1B7
:100E40002046F4E7012D36D1019800F480200028D7
:100E50002ED03548008800043449086037204860A7
:100E6000402088600020C860A8020861084600F0A1
:100E7000F9F83720FFF70CFA04460CB12046D6E704
:100E800002202A490860062048604020886000202F
:100E9000C8604FF480600861084600F0E3F806205F
:100EA000FFF7F6F904460CB12046C0E72046BEE73E
:100EB00025242046BBE7019800F4803078B31A4817
:100EC0000088000419490860372048604020886085
:100ED0000020C8604FF480600861084600F0C2F846
:100EE0003720FFF7D5F904460CB120469FE70020D4
:100EF0000E49086006204860402088600020C860D5
:100F00004FF480600861084600F0ACF80620FFF757
:100F1000BFF904460CB1204689E7204687E7FFE782
:100F20002524204683E700003C00002030290020D3
:100F300001498863704700000080014001498863CF
:100F400070470000008001400149086070470000C0
:100F5000A000304201490860704700008C05304213
:100F600000210A4B02685A6242689A621A46D16AA4
:100F700021F0F701D0E902231A4303691A434369B8
:100F80001A431143014AD1627047000000800140BA
:100F900000200649086048608860C860486288622E
:100FA000C862034888630020C8637047008001401E
:100FB000FF07C00001480069C0B2704700800140CF
:100FC00001460020034A526B0A400AB1012000E0AA
:100FD00000207047008001400248006800F00300D4
:100FE000704700000080014008B5014600200090D5
:100FF0000248084400900098006808BD1480014031
:1010000010B500F0B7FD10BD29B1064AD26B0243FE
:10101000044BDA6304E0034AD26B8243014BDA6388
:10102000704700000080014000210A4A516847F6DD
:10103000FF629143027D83681A4343681A43C36881
:101040001A4303681A4303691A431143014A516062
:1010500070470000008001400148006870470000B0
:10106000808001400021094B02689A601A46D168CD
:101070006FF30A01D0E901231A43C3681A430369D5
:101080001A431143014AD1607047000000800140BB
:101090000549096821F00301034A116011460968F6
:1010A00001431160704700000080014010B543A06B
:1010B00001F050FA01224DA14D4802F0BBFA4D4912
:1010C0000870084600780D2823D14BA001F042FAA1
:1010D0000022114645A001F06BFF46490870084602
:1010E000007888B94FA001F035FA01223FA1002015
:1010F00002F0A0FA3F49087001223CA13C4802F0EE
:1011000099FA3C49087014E04EA001F023FA00BFA0
:10111000FEE73848007848B1364801784FA001F022
:1011200019FA58A001F016FA00BFFEE75FA001F01F
:1011300011FA68A001F00EFA012270A1724802F0C3
:10114000A7FA2C49087008460078002829D16FA01A
:1011500001F000FA724B4FF4FA6272496A4802F0E9
:1011600052FB2449087008460078A0B96C48016811
:101170006DA001F0EFF9002405E06A48015D73A05D
:1011800001F0E8F9641C664800688442F5D371A058
:1011900001F0E0F908E01748017870A001F0DAF9F1
:1011A00002E074A001F0D6F9574801F0F1FE0122E7
:1011B0000EA1002002F03EFA10BD00002A2A2A2AC1
:1011C0002A2A20D5E2CAC7D2BBB8F65350492046D6
:1011D0004C41534820CEC4BCFECFB5CDB3CAB5D127
:1011E000E9202A2A2A2A2A2A0D0A0000303A000079
:1011F0006C00002014000020A1B7464C415348BBAE
:10120000B9C3BBD3D0CEC4BCFECFB5CDB3A3ACBCA9
:10121000B4BDABBDF8D0D0B8F1CABDBBAF2E2E2E39
:101220000D0A0000A1B7464C415348D2D1B3C9B909
:10123000A6B8F1CABDBBAFCEC4BCFECFB5CDB3A17D
:10124000A30D0A00A1B6A1B6B8F1CABDBBAFCAA72B
:10125000B0DCA1A3A1B7A1B70D0A0000A3A1A3A16F
:10126000CDE2B2BF466C617368B9D2D4D8CEC4BCEB
:10127000FECFB5CDB3CAA7B0DCA1A3282564290D44
:101280000A000000A3A1A3A1BFC9C4DCD4ADD2F25F
:10129000A3BA53504920466C617368B3F5CABCBB0E
:1012A000AFB2BBB3C9B9A6A1A30D0A00A1B7CEC402
:1012B000BCFECFB5CDB3B9D2D4D8B3C9B9A6A3AC0F
:1012C000BFC9D2D4BDF8D0D0B6C1D0B4B2E2CAD46E
:1012D0000D0A00002A2A2A2A2A2A20BCB4BDABBD46
:1012E000F8D0D0CEC4BCFEB6C1C8A1B2E2CAD42EDA
:1012F0002E2E202A2A2A2A2A2A0D0A00303A757010
:10130000312E62696E0000009C100020A1B7B4F27B
:10131000BFAACEC4BCFEB3C9B9A6A1A30D0A0000E2
:1013200018000020C0200020A1B7CEC4BCFEB6C16A
:10133000C8A1B3C9B9A62CB6C1B5BDD7D6BDDACA46
:10134000FDBEDDA3BA25640D0A00000030782578C3
:10135000202000000A0A0A0A00000000A3A1A3A19D
:10136000CEC4BCFEB6C1C8A1CAA7B0DCA3BA2825AA
:1013700064290A00A3A1A3A1B4F2BFAACEC4BCFEF3
:10138000CAA7B0DCA1A30D0A0000000010B50248F6
:10139000FFF762F810BD00000020001030B58BB0E0
:1013A00005460C461348FFF73DF800211248FFF7A9
:1013B00047F812480090019500200290A008039081
:1013C0000020049080200590800006908000079007
:1013D000002008904FF40050099000200A906946C0
:1013E0000548FFF74FF801210348FFF729F80BB034
:1013F00030BD000000F00010440402408080014035
:1014000030B58BB005460C461348FFF70BF80021AA
:101410001248FFF715F8124800900195102002902D
:10142000A008039000200490802005908000069082
:1014300080000790002008904FF400500990002091
:101440000A9069460548FFF71DF801210348FEF799
:10145000F7FF0BB030BD000000F000104404024064
:101460008080014070B504460025214800680328AB
:1014700002D12725284670BD1D48006838B11C4898
:101480000068012803D01A48006802282ED1B4F55C
:10149000805F02D127252846EDE7B4F5006F14D10F
:1014A0000120FFF7B7FC054605BB0120114908756F
:1014B00000200860486088604FF40060C860002029
:1014C00008610846FFF7B0FD10E00020FFF7A2FC1E
:1014D00005465DB90120074908750020086048608D
:1014E0008860C86008610846FFF79EFD2846C2E78D
:1014F0003800002018290020F0B501460020002205
:10150000BC4B1B7881F85630BB4B1B88A1F854307C
:10151000BA4B1B681A0E93090B70C2F383034B700E
:1015200002F003038B70B54B1B68C3F30742CA700C
:10153000B24B1B88C3F307220A71B04B1A784A7169
:101540005B681A0E1301CB80AC4B5B68C3F3074298
:10155000CB8843EA1213CB8002F00F030B72A74B28
:101560009B88C3F30722D3094B72C2F380138B729B
:10157000C2F34013CB72C2F300130B7300234B73FF
:101580009C4B1B681BB19B4B1B68012B4FD19307D6
:101590001B0D0B61994B1A790B6943EA82030B61AE
:1015A000964B9B681A0E0B6943EA92130B61C2F3C8
:1015B000C2030B7502F007034B75904B9B68C3F396
:1015C000074253098B75C2F38203CB7593075B0FF8
:1015D0000B768A4B1B89C3F307220B7E43EAD21397
:1015E0000B760B695B1C0024C1E912340B7ED1E938
:1015F00012649B1C012505FA03F3DF17A6FB035CAD
:1016000004FB03C306FB0733C1E912530C7A012321
:10161000A3400B650027D1E912560B6DA5FB034CC7
:1016200006FB03C305FB0733C1E912432DE0714BF1
:101630001B68022B29D1714B1A7993069B0A0B6107
:101640006E4B9B681A0E0B6943EA02230B616B4BCE
:101650009B68C3F307420B6913430B61674B1B89FC
:10166000C3F307220B695B1C4FF40074A3FB043423
:101670004FF480660025A3FB067C04FB06C403FB35
:101680000543C1E9127373100B65C2F3801301F8AF
:10169000193F93065B0E4B70584B1A7A4B7843EA0E
:1016A000D2134B7002F07F038B70544BDB681A0E21
:1016B000D309CB70C2F341130B71C2F382034B7198
:1016C00093071B0F8B714D4BDB68C3F307428B797C
:1016D00043EA92138B71C2F34013CB7100230B7258
:1016E00002F001034B72454B9B89C3F30722D309D8
:1016F0008B72C2F38013CB72C2F340130B73C2F32D
:1017000000134B73C2F381038B7302F00303CB739B
:101710003A4B1A7B53080B7401234B74384B1B68EC
:101720001A0ECA741939364B1B68C3F307421402E8
:10173000CC85334B1B88C3F30722CB8D1343CB855A
:101740002F4B1A7814060C635B681A0E0B6B43EA76
:1017500002440C632A4B5B68C3F307420B6B43EAFA
:1017600002240C63264B9B88C3F307220B6B1343A5
:101770000B63234B1A7934235A54214B9B681A0E5E
:1017800035235A541E4B9B68C3F3074214068C63DF
:101790001B4B1B89C3F307228B6B43EA02448C6308
:1017A000174B1A7A8B6B43EA02248C63144BDB6869
:1017B0001A0E8B6B13438B63114BDB68C3F3074229
:1017C0003C235B5C43EA12143C235C5413071C0D5E
:1017D000CC870B4B9B89C3F30722CB8F1343CB875B
:1017E000074B1A7B540840235C54012441235C546A
:1017F000F0BD0000380000203C00002090280020B0
:10180000A028002008B500200090684600F074FA77
:1018100008B1FF2008BD0098C0F34320FAE710B5D7
:101820000424FFF7EFFF0446042C01D1002010BD73
:10183000FF2C01D10220FAE70120F8E710B50024BF
:10184000FFF7AAF9FEF7CAFFFFF7A2FB00F0CEF8F8
:1018500004460CB1204610BD00F02AF804460CB135
:101860002046F8E70120104908750020086048600C
:101870008860C86008610846FFF7D6FB1CB90B48B2
:10188000FFF73AFE044634B90849B1F85410080489
:1018900000F018FA044624B94FF40060FFF7E2FDA7
:1018A00004462046D7E7000018290020C028002061
:1018B00038B5002401200090FFF78EFB10B92524D5
:1018C000204638BD44480068042828D000204349F9
:1018D000086002204860C02088600020C8604FF483
:1018E000806008610846FFF7BDFBFEF7E5FC044693
:1018F0000CB12046E5E70020FFF776FB3849086089
:101900000420FFF771FB364948600820FFF76CFBA5
:10191000334988600C20FFF767FB3149C8602E48C7
:10192000006858B12C480068012807D02A48006890
:10193000062803D028480068022816D1002027492D
:10194000086003204860402088600020C8604FF491
:10195000806008610846FFF785FB69460320FEF7B3
:10196000EDFC04460CB12046ABE71B480068042898
:101970002ED0BDF800001B490860BDF8000000042F
:101980001649086009204860C02088600020C860AF
:101990004FF4806008610846FFF764FBFEF78CFC9B
:1019A00004460CB120468CE70020FFF71DFB0E49D2
:1019B00008600420FFF718FB0B4948600820FFF778
:1019C00013FB094988600C20FFF70EFB0649C8602D
:1019D0000024204675E70000380000203029002050
:1019E000A02800203C000020902800202DE9F04194
:1019F0000024002600250027A046B220594908757A
:101A00000020086048608860C86008610846FFF7E9
:101A10000BFB0320FFF73CFB0120FFF795FA0020AA
:101A20005149086048608860C8604FF48060086170
:101A30000846FFF717FBFEF715FC044614B12046D5
:101A4000BDE8F0814FF4D570474908600820486030
:101A5000402088600020C8604FF48060086108461C
:101A6000FFF700FBFEF7B8FC04462CB901203F4904
:101A700008604FF0804812E000203B4908603720A2
:101A80004860402088600020C8604FF48060086192
:101A90000846FFF7E7FA3720FEF7FAFB0446002076
:101AA0003149086037204860402088600020C860C5
:101AB0004FF4806008610846FFF7D4FA3720FEF73C
:101AC000E7FB0446002C4AD136E000202649086096
:101AD00037204860402088600020C8604FF4806054
:101AE00008610846FFF7BEFA3720FEF7D1FB04462F
:101AF0000CB12046A4E71E4848EA00001A490860D5
:101B000029204860402088600020C8604FF4806031
:101B100008610846FFF7A6FAFEF7F4FB04460CB18D
:101B200020468DE70020FFF75FFA0646012080EA95
:101B3000D67080F001076D1C1FB94FF6FF7085420B
:101B4000C3D34FF6FF70854202D31B24204677E7AC
:101B500006F08040061E02D002200449086020469C
:101B60006EE70000182900203029002038000020EE
:101B70000000108010B51148006801280BD100202A
:101B80000F49886040F24C40C8600C20FEF780FB93
:101B90000C49087002E000200A4908704FF4807078
:101BA000FFF7CCF900214FF48070FFF72DFA0120E8
:101BB000054908600348007810BD0000400000207F
:101BC0000080014044000020480000202DE9F0473B
:101BD000814614461D46DDE9086800270020324989
:101BE00008703249086001203149086000203149FD
:101BF000C86231480068022808D1060202020023A8
:101C000020462946FEF7B4FA04460D462B480660E6
:101C100010202A494860402088600020C8604FF4A6
:101C2000806008610846FFF71DFA1020FEF730FBC0
:101C3000074617B13846BDE8F0874FF0FF3020491E
:101C4000086008FB06F04860902088600220C860A9
:101C500000200861012048610846FFF781F9174814
:101C60000460122015494860402088600020C86048
:101C70004FF4806008610846FFF7F4F91220FEF780
:101C800007FB07460FB13846D5E701210802FFF7E9
:101C9000BBF90120FFF75EF908FB06F14846FFF7A4
:101CA0007DFB3846C7E700004400002048000020C4
:101CB0004000002000800140380000203029002032
:101CC0004429002070B5044600250A480460072016
:101CD00008494860402088600020C8604FF4806058
:101CE00008610846FFF7BEF90720FEF7D1FA05465E
:101CF000284670BD3029002070B5044600250A48EA
:101D0000008800040949886040F24D40C8600D20F9
:101D1000FEF7BEFA05460DB1284670BD034840697E
:101D200020602846F9E700003C00002000800140C8
:101D300010B5002400BFFFF729FB30B90748006841
:101D400018B9074800780028F5D00548007810B188
:101D50000348007810BD2046FCE700004800002042
:101D60004400002010B5002400BFFFF70FFB30B97E
:101D70000948006818B9094800780028F5D00748D4
:101D8000007810B10548007810BD40F2FF50FFF711
:101D9000CFF82046F8E7000048000020440000206B
:101DA0002DE9F843814615461E46DDE908780024F2
:101DB00000200090484908704849086001204849BF
:101DC000086000204749C86247480068022808D1D7
:101DD00007020202002328463146FEF7C9F90546EC
:101DE0000E46424807601020404948604020886005
:101DF0000020C8604FF4806008610846FFF732F9A0
:101E00001020FEF745FA044614B12046BDE8F883D9
:101E10003748008800043549086037204860402072
:101E200088600020C8604FF4806008610846FFF7B2
:101E300019F93720FEF72CFA04460CB12046E5E7E5
:101E40002A48C0F800801720284948604020886050
:101E50000020C8604FF4806008610846FFF702F96F
:101E60001720FEF715FA04460CB12046CEE71F48AE
:101E7000056019201D494860402088600020C86026
:101E80004FF4806008610846FFF7ECF81920FEF770
:101E9000FFF904460CB12046B8E74FF0FF30154972
:101EA000086008FB07F04860902088600020C86048
:101EB0000861012048610846FFF752F80121080235
:101EC000FFF7A2F80120FFF745F808FB07F14846A5
:101ED000FFF796FA204699E74400002048000020CA
:101EE0004000002000800140380000203029002000
:101EF0003C00002044290020704710B500F002F893
:101F000010BD00000CB5002001900090334800681F
:101F100040F480303149086000BF3048006800F468
:101F2000003000900198401C0190009818B9019869
:101F3000B0F5A06FF1D12948006800F4003010B16D
:101F40000120009001E0002000900098012843D17A
:101F50002348006840F010002149086008460068E6
:101F600020F0030008600846006840F002000860A6
:101F70001A48406819494860084640684860084661
:101F8000406840F4806048600846406820F47C1057
:101F900048600846406840F4E81048600846006819
:101FA00040F08070086000BF0C48006800F00070CE
:101FB0000028F9D00948406820F00300074948602C
:101FC0000846406840F00200486000BF034840688F
:101FD00000F00C000828F9D10CBD000000100240F0
:101FE000002002407047000010B51348006840F020
:101FF00001001149086008464068104908400E4930
:102000004860084600680E4908400B4908600846C9
:10201000006820F4802008600846406820F4FE0034
:1020200048604FF41F008860FFF767FF4FF00060C3
:102030000449086010BD0000001002400000FFF8D5
:10204000FFFFF6FE08ED00E010B50121164800F094
:102050005BF840B315480068401C144908601448F8
:102060000068401C1249086008460068642808D1CE
:102070001048006880F001000E49086000200C49FB
:1020800008600A48006842F21071884207D10020B7
:1020900006490860FEF7A6FE0748FEF7E9FC0121A5
:1020A000014800F022F810BD001000404C00002054
:1020B000500000200C0C01400078000810B50121F0
:1020C000064800F021F840B105480068401C04496A
:1020D00008600121014800F008F810BD0010004020
:1020E00054000020CA4302827047CA4302827047EC
:1020F00021B1028842F00102028004E002884FF61A
:10210000FE731A400280704702460020138A0B407B
:102110000BB1012000E0002070471AB183890B4306
:10212000838102E083898B43838170470022028888
:102130001D4B98420ED01D4B98420BD0B0F1804FF2
:1021400008D01B4B984205D01A4B984202D01A4B2C
:10215000984204D14FF68F731A404B881A43174B9D
:10216000984207D0164B984204D04FF6FF431A40CE
:10217000CB881A4302808B8883850B8803850A4BA2
:1021800098420BD0094B984208D00E4B984205D08C
:102190000D4B984202D00D4B984201D10B7A038629
:1021A0000123838270470000002C0140003401406D
:1021B0000004004000080040000C004000100040F7
:1021C000001400400040014000440140004801402C
:1021D0000EB5FEF7CCFC01211020FEF759FD47207B
:1021E000ADF8000040F2E730ADF804006946084859
:1021F000FFF79CFF01210648FFF774FF01221146FB
:102200000348FFF78AFF01210148FFF771FF0EBD68
:102210000010004010B540F22551064800F099F832
:1022200038B1044800F050F904462146014800F056
:1022300050F910BD0038014021B1828942F40052AA
:10224000828104E082894DF6FF731A4082817047D3
:102250001FB5FEF7E5FBFEF7F5FC4FF4E13000900B
:102260000020ADF80C000C20ADF80A000020ADF8FD
:102270000800ADF80600ADF804006946064800F015
:10228000B7F8012240F22551034800F08CF80121F3
:102290000148FFF7D1FF1FBD0038014010B50446CB
:1022A0002048844209D101218803FEF721FD002145
:1022B0004FF48040FEF71CFD32E01B48844209D1F8
:1022C00001214804FEF7F4FC00214FF40030FEF732
:1022D000EFFC25E01548844209D101218804FEF76E
:1022E000E7FC00214FF48020FEF7E2FC18E01048E4
:1022F000844209D10121C804FEF7DAFC00214FF421
:102300000020FEF7D5FC0BE00A48844208D10121E9
:102310000805FEF7CDFC00214FF48010FEF7C8FC45
:1023200010BD00000038014000440040004800405B
:10233000004C00400050004002460020B1F5007FF4
:1023400000D100BF13880B400BB1012000E000203A
:10235000704770B50246002400230025002040F697
:102360006A16B14200D100BFC1F3421501F01F034C
:10237000012606FA03F3012D02D19689334006E0C7
:10238000022D02D1168A334001E0968A33400C12A6
:10239000012606FA04F41688344013B10CB101206A
:1023A00000E0002070BDF0B50346002400260025A3
:1023B000002040F66A17B94200D100BF1846C1F3A9
:1023C000421401F01F06012707FA06F5012C01D17E
:1023D0000C3004E0022C01D1103000E014301AB1AE
:1023E00007682F43076002E00768AF430760F0BD4E
:1023F0002DE9F04786B005460E460024A24600BFF0
:10240000A1460027B08900B100BF2F462C8A4CF6A8
:10241000FF700440F08804432C82AC894EF6F31020
:102420000440B08831890843718908430443AC8172
:10243000AC8A4FF6FF400440B0890443AC8201A847
:10244000FEF766FC1F48874202D1DDF810A001E0CC
:10245000DDF80CA0A88900F4004040B10AEBCA00E6
:1024600000EB0A1031684900B0FBF1F807E00AEB15
:10247000CA0000EB0A1031688900B0FBF1F8642053
:10248000B8FBF0F004012009642101FB1089A88940
:1024900000F4004040B1322000EBC900B0FBF1F085
:1024A00000F00700044308E0322000EB091064212B
:1024B000B0FBF1F000F00F0004432C8106B0BDE842
:1024C000F08700000038014001468888C0F308000A
:1024D0007047C1F308028280704700BFFEE700002A
:1024E0002DE9F04705460C46FEF78AF800271BE069
:1024F0002678641C94F8009046EA09263146144870
:102500000068FEF75DF81248006800881FFA80F83E
:10251000B04502D00020BDE8F087641C0C4800687C
:10252000801C0B4908607F1CB7EB550FE0D305F00A
:10253000010040B1267846F47F46054909684819EC
:102540003146FEF73DF8FEF731F80120E3E70000E1
:102550002C0000200FB4054B10B503A9044A0298C3
:1025600000F018F810BC5DF814FB0000F13E000804
:102570006800002002E008C8121F08C1002AFAD132
:1025800070477047002001E001C1121F002AFBD1F3
:10259000704700002DE9FF4F8DB09B460F46044663
:1025A000002606E025280BD05A460F999047641C58
:1025B000761C20780028F5D111B03046BDE8F08FA8
:1025C0000025A8460122984900E0054314F8013F80
:1025D000203B02FA03F00842F7D120782E2817D1C9
:1025E00014F8010F45F004052A280ED06FF02F02D1
:1025F0002078A0F1300109290AD808EB880102EB04
:10260000410100EB0108641CF2E757F8048B641CDD
:1026100020786C280DD004DC4C2812D06A2811D107
:1026200004E074280DD07A280CD10AE045F4001596
:1026300007E0617845F48015814202D1641C05F5FC
:102640008015641C2278692A45D008DC002AB3D0A2
:10265000582A69D0632A10D0642A08D13BE0702A36
:1026600067D0732A13D0752A5CD0782A5CD01046C4
:102670005A460F999047761CD3E017F8040B8DF853
:10268000000000208DF80100E946012003E057F822
:10269000049B4FF0FF3069074FF0000501D40AE0BA
:1026A0006D1C45450DDA8542FADB19F80510002945
:1026B000F6D106E06D1C8542FCDB19F805100029F7
:1026C000F8D12E4404E019F8010B5A460F999047AF
:1026D0006D1EF8D2A5E00A200021CDE90801C5F35E
:1026E000025002280DD001CFC117031E71F1000363
:1026F0000DDA4FF0000CD0EB0C006CEB01012D2338
:1027000008E0FF1D27F00707F7E80201EDE72B05BA
:1027100004D52B238DF8283001233BE0EB0739D07B
:102720002023F7E70A2000E010200021CDE908016E
:1027300007E01020002145F00405CDE908014FF025
:102740000808C5F3025002280FD001CF00214FF036
:10275000000A2B071FD5702A0DD0DDE908C38CF0C5
:10276000100C5CEA030C0CD015E0FF1D27F00707E6
:10277000F7E80201EBE740228DF828204FF0010A2C
:102780000BE050EA010306D030238DF828308DF895
:10279000292002239A46582A04D024A20DF12009A8
:1027A0000B9209E026A2F9E7DDE90823FDF7E0FC3A
:1027B0000B9B9B5C09F8013D50EA0102F4D1ADEBA3
:1027C000090020300890680701D44FF001080899EB
:1027D000884502DDA8EB010000E0002080460025CE
:1027E00006E00AA85A46405D0F9990476D1C761C7A
:1027F0005545F6DB04E030205A460F999047761C89
:10280000B8F10001A8F10108F5DC05E019F8010BA9
:102810005A460F999047761C0899481E089000293F
:10282000F4DC641CC5E600000928010030313233B5
:1028300034353637383961626364656600000000FC
:1028400030313233343536373839414243444546E6
:102850000000000070B504460D4600202071401EA7
:10286000E0622946204601F0C9FC08B1032070BD92
:1028700094F82E1294F82F0241EA00204AF65521CE
:10288000884201D00220F2E794F86900010694F82A
:10289000680041EA004194F8670041EA002094F89A
:1028A0006610084320F07F400D49884201D1002086
:1028B000DDE794F88500010694F8840041EA0041C0
:1028C00094F8830041EA002094F88210084320F035
:1028D0007F400349884201D10020C8E70120C6E7B4
:1028E00046415400024600E0521C107810B11078A6
:1028F0008842F9D1107870470246891E5069801EBF
:10290000884201D8002070479378906A01FB030049
:10291000F9E72DE9F04704468946B9F1000F06D1E1
:10292000E76817B16069B84215D8012713E0494636
:10293000204601F0EFFA0646022E02D20120BDE841
:10294000F087701C08B93046F9E76069B04201D9D8
:102950003046F4E74F463D4600BF6D1C6069A84213
:1029600004D80225BD4201D90020E8E729462046C7
:1029700001F0D0FA064606B909E0701C08B1012E34
:1029800001D13046DBE7BD42E7D10020D7E700BFE9
:102990006FF070422946204601F04AFC8046B8F1AB
:1029A000000F08D1B9F1000F05D02A46494620464C
:1029B00001F03EFC8046B8F1000F0BD1E5602069C4
:1029C000401C78B12069401E2061607940F0010010
:1029D000607107E0B8F1010F02D14FF0FF3000E065
:1029E000012005462846AAE72DE9F35F0198D0F8B3
:1029F000009001E009F1010999F800002F28F9D0B1
:102A000099F800005C28F5D0009886690B222021F7
:102A1000304601F0E9FB00252F46AB464FF0080A8F
:102A200000BF58460BF1010B19F80040202C03DDC4
:102A30002F2C01D05C2C00D157E02E2C01D0574513
:102A40000DD3BAF1080F01D12E2C02D00620BDE81B
:102A5000FC9F08274FF00B0AA806050EE1E7802C23
:102A600001DB45F00305812C01DB9F2C03DDE02C0D
:102A700020DBFC2C1EDC58460BF1010B19F8008002
:102A8000B8F1400F02DBB8F17E0F05DDB8F1800F21
:102A900006DBB8F1FC0F03DCAAF10100B84201D853
:102AA0000620D4E738467F1C345438467F1C06F88D
:102AB000008019E0214620A0FFF714FF08B106208E
:102AC000C5E7412C04DB5A2C02DC45F0020508E086
:102AD000612C06DB7A2C04DC45F00105A4F1200012
:102AE000C4B238467F1C34549BE700BF09EB0B018E
:102AF00001980160202C01DC042000E00020044645
:102B00000FB90620A3E73078E52801D10520307001
:102B1000BAF1080F01D1A806050E05F0030001283F
:102B200001D144F0100405F00C00042801D144F058
:102B30000804F47200208AE7222A2B2C3A3B3C3D01
:102B40003E3F5B5D7C7F00002DE9F04104460E4670
:102B50000021204600F00EF90546EDB9002700BF20
:102B60002169206801F04AFB054605B113E0606960
:102B70000078E52802D06069007820B9781C074603
:102B8000B04201D107E000270121204600F038F8CB
:102B90000546002DE4D000BF042D00D107252846AE
:102BA000BDE8F0812DE9F04104460021204600F007
:102BB000E1F8054615B12846BDE8F08100BF21695E
:102BC000206801F01BFB054605B116E06669377801
:102BD0000FB9042511E0F07A00F0080030B90B229B
:102BE0003046A16901F0E0FA00B906E00021204674
:102BF00000F006F80546002DE1D000BF2846DBE7CF
:102C00002DE9F04104468846E088461CB0B208B180
:102C1000206910B90420BDE8F08121684889C117F6
:102C200000EBD1614911B6FBF1F201FB1261002901
:102C300071D12069401C2061E06828B920680089B2
:102C4000B04268D80420E6E721684889C11700EB44
:102C5000D1614911B6FBF1F122689278521E114000
:102C6000002958D1E168206801F054F90546012D8A
:102C700001D80220CFE7681C08B90120CBE7206803
:102C80004069A84241D8B8F1000F01D10420C2E741
:102C9000E1682068FFF73DFE05460DB90720BAE759
:102CA000012D01D10220B6E7681C08B90120B2E766
:102CB000206801F023FC08B10120ACE721684A89B3
:102CC00001F13000002101F08FFA29462068FFF75A
:102CD00013FE2168C86200270EE0012021680871F8
:102CE000206801F00BFC08B1012094E72068C06A5D
:102CF000401C2168C8627F1C20688078B842ECD8EC
:102D00002068C06AC01B2168C862E5602946206847
:102D1000FFF7F2FD2061E68021684889C11700EBCA
:102D2000D1614911B6FBF1F201FB12612268303228
:102D300002EB4111616100206DE770B5044601218D
:102D40002046FFF701FF054695B92169206801F08B
:102D500055FA054665B920220021606901F044FA60
:102D60000B22D4E9050101F032FA01202168087133
:102D7000284670BD2DE9F04104460E46E680A56860
:102D8000012D03D020684069A84202D80220BDE886
:102D9000F0812DB920680078032801D12068456AA8
:102DA00045B920680089B04201D80220EFE72068C9
:102DB000476A24E021684889C11700EBD1614911B5
:102DC0002268927801FB02F812E02946206801F09F
:102DD000A1F80546681C08B90120D8E7022D03D3E5
:102DE00020684069A84201D80220D0E7A6EB080677
:102DF0004645EAD229462068FFF77EFD0746E56092
:102E00000FB90220C3E721684889C11700EBD161DF
:102E10004911B6FBF1F13944216121684889C11794
:102E200000EBD1614911B6FBF1F201FB126122689E
:102E3000303202EB411161610020A8E770B5054610
:102E40003DB9FEF7FBFC08B9002400E00124204650
:102E500070BD0120FCE7000010B5034613B1012B43
:102E600019D116E0012904D0022906D003290CD17A
:102E700008E00A48806C106007E00848B0F850008D
:102E8000108002E00120108000BF00BF0024204617
:102E900010BD2046FCE70420FAE70000C02800200F
:102EA0002DE9FC4105460E461746984615B1012D01
:102EB00025D122E01348B0F8500080B2CDE90008D7
:102EC0001048006D00FB07F10A4600233046FEF76C
:102ED0007DFE0D490870FEF72BFF0B49087000BFFF
:102EE000FEF79DFC0028FBD10748007808B90024B4
:102EF00000E001242046BDE8FC812046FBE70420D9
:102F0000F9E70000C028002058000020014611B158
:102F1000012905D102E00022104670471046FCE767
:102F20000120FAE72DE9FC4105460E461746984672
:102F300015B1012D25D122E01348B0F8500080B220
:102F4000CDE900081048006D00FB07F10A46002398
:102F50003046FEF725FF0D490870FEF703FF0B49C9
:102F6000087000BFFEF75BFC0028FBD10748007823
:102F700008B9002400E001242046BDE8FC81204679
:102F8000FBE70420F9E70000C028002058000020DB
:102F900070B50546284600F01EFD044634B92846A3
:102FA00001F0D5FA04460CB900202860204670BD17
:102FB0002DE9F74F90B091461198012803DD1320B9
:102FC00013B0BDE8F08F10A801F045F80F900F98EE
:102FD000002801DA0B20F3E7FA490F9851F8205046
:102FE0000DB90C20ECE7002028700F98C0B20C90AF
:102FF00000200B900C98FFF721FF0190019800F042
:10300000010008B10320DBE7019800F0040008B1DB
:103010000A20D5E705F10A0202210C98FFF71CFFF0
:1030200038B96889B0F5805F03DC6889B0F5007F46
:1030300001DA0120C4E700BF04AA01210C98FFF7C0
:103040000BFF10B90498802801D20120B8E711982D
:1030500008B1002000E03F2082460498A0EB0A005F
:103060000490A9F1010000EA090008B14FF000093D
:10307000B9F1000F1AD16889C11700EBD15149127B
:103080004FF4FA6292FBF1F1049AB2FBF1F10A916A
:103090004FF0000B01E00BF1010BCB4830F81B1097
:1030A0000A988142F7D8C94830F81B90B9F5007FDB
:1030B00002D36889B9FBF0F9B9F1000F01D14FF0E3
:1030C0000109B9F1800F01D94FF080090498B0FBD4
:1030D000F9F8012640F6F670804500D302264FF637
:1030E000F670804500D30326032E0CD1082000EB98
:1030F000880069890844401EB0FBF1F72020039046
:103100000020029019E0012E05D108EB4800401C78
:103110004008C01C02E04FEA4800001D07466889CD
:103120003844401E6989B0FBF1F70120039068899B
:103130004FF48041B1FBF0F00290039850440790A7
:103140000798384406900299069808440590059817
:103150004844A0EB0A000499884201D90E202FE7C9
:1031600009AA03210C98FFF777FE28B9099818B12E
:103170000998B0F5004F01D90120099009990598E7
:103180000844401E491E8843099009990598081A69
:103190000990032E08D109990398084403900999CE
:1031A00007980844079001E009980744DDE9030106
:1031B000081AC11B0298081AB0FBF9F8022E03D1B5
:1031C00040F6F670804505D3032E05D14FF6F67014
:1031D000804501D20E20F3E6032E02D10C200D9083
:1031E00010E0012E06D10498B0F5803F02D20120F4
:1031F0000D9007E00498B0F5803F01D2042000E074
:1032000006200D9000BF119810B1F0200E9043E001
:103210006A89002105F1300000F0E6FF05F5F7743A
:1032200001206070A0700020E0700D982071FE20D9
:103230006071049850443F21B0FBF1F0FF21B0FBD6
:10324000F1F009903F21099841EA9000A071099896
:10325000E0713F20207200216172A172E172049836
:1032600020730498010A61730498010CA1730498F7
:10327000010EE173552185F82E12AA2185F82F122F
:103280000123002205F130010C98FFF74BFE08B135
:10329000012095E6F8200E9005F130046A8900219E
:1032A000204600F0A1FF0B2249A1204600F08FFF2D
:1032B000B5F80AB084F80BB04FEA1B21217384F8EB
:1032C0000D900398A0730398010AE1730120207404
:1032D000032E01D1002001E04FF40070834684F8F2
:1032E00011B04FEA1B21A1740498B0F5803F05D2BC
:1032F0000498E0740498010A217510E0049884F899
:1033000020000498C0F30721212001550498C0F340
:103310000741222001550498010E232001550E98E3
:1033200060753F20207600216176FF20A076E1764F
:1033300084F81CA04FEA1A2161774FEA1A41A1775D
:103340004FEA1A61E17700F084FE0990032E4BD119
:10335000099884F843000998C0F3072144200155D7
:103360000998C0F30741452001550998010E4620F0
:10337000015584F82470C7F3072125200155C7F3B0
:10338000074126200155390E27200155022084F8D7
:103390002C0000212D2001552E2001552F200155F4
:1033A000012084F8300031200155062084F83200D5
:1033B00033200155802084F84000292084F8420001
:1033C00013220BE05C0000208045000896450008B1
:1033D000EBFE904D53444F53352E30008AA104F13B
:1033E000470000F0F4FE1FE0099884F827000998D0
:1033F000C0F30721282001550998C0F3074129206F
:1034000001550998010E2A200155A775390AE17561
:10341000802084F82400292084F8260013227FA12C
:1034200004F12B0000F0D3FE552084F8FE01AA2100
:1034300040F2FF1001550123524621460C98FFF738
:1034400071FD08B10120BBE5032E06D101230AF16D
:10345000060221460C98FFF765FD079808904FF08B
:10346000000B5FE06A890021204600F0BDFE0E9847
:103470000990032E14D0012E01D16D4801E06FF0A8
:10348000FF00099908430990099820700998000ADB
:1034900060700998000CA0700998000EE07019E0A7
:1034A000099860F0FF000990099820700998000AB7
:1034B00060700998000CA0700998000EE070FF2061
:1034C0002071FF216171A171E17120726172A1729D
:1034D0000F21E1720898411C024601230891214600
:1034E0000C98FFF71FFD08B1012069E56A890021EA
:1034F000204600F079FE012009900EE00898411C5A
:1035000002460123089121460C98FFF70BFD08B1F4
:10351000012055E50998401C09900998B842EDD35F
:103520000BF1010BBBF1000F9CD0032E01D14846DB
:1035300000E00298834600BF0898411C0246012320
:10354000089121460C98FFF7EDFC08B1012037E502
:10355000ABF10100B0F1000BEED1032E49D15220A6
:10356000207060706120A0704120E070722084F8AB
:10357000E401722140F2E51001554121401C015542
:103580006121401C0155A8F1010084F8E801C0F355
:10359000072140F2E9100155A8F10100C0F30741ED
:1035A0004FF4F5700155A8F10100010E40F2EB1047
:1035B0000155022084F8EC01002140F2ED10015584
:1035C000401C0155401C0155552084F8FE01AA21DC
:1035D00040F2FF10015501230AF1010221460C9827
:1035E000FFF7A0FC01230AF1070221460C98FFF720
:1035F00099FC002211460C98FFF72EFC08B101201F
:10360000DEE40020DCE400004E4F204E414D45201A
:103610002020204641543332202020004E4F204E9F
:10362000414D4520202020464154202020202000CC
:1036300000FFFF00F7B582B016460398019001A87D
:1036400000F009FD0546002D02DA0B2005B0F0BDA3
:103650000E4850F825400CB100202070029810B19F
:103660000020029908700949029841F82500029843
:1036700008B1012E01D00020E8E7002203A902A82A
:1036800000F002FA07463846E0E700005C00002040
:103690002DE9F7438AB0054616461DB909200DB03D
:1036A000BDE8F0830020286006F01F0626F0010226
:1036B0000BA903A800F0E8F90746002F72D1CDF856
:1036C00024D003A80B9900F0CBFB0746089C0FB948
:1036D00004B9062706F01C0000285CD04FB1042F67
:1036E00003D103A8FFF729FB074646F00806089C0C
:1036F00009E0E07A00F0110008B1072703E006F0C6
:10370000040000B10827002F55D106F0080000285A
:1037100051D000F09EFC804684F80E804FEA1821BC
:10372000E1734FEA184121744FEA1861617484F81B
:1037300016804FEA1821E1754FEA184121764FEAC9
:10374000186161760020E072207700216177A1770F
:10375000E1772146039800F0A3FC81460021204632
:1037600000F060FE012003990871B9F1000F22D02A
:103770000398D0F82C804946039800F01DFE0746B8
:10378000CFB9A9F101000399C8604146039800F040
:1037900035FD07460FE077B9E07A00F0100010B170
:1037A000042708E02DE006F0020020B1E07A00F0E6
:1037B000010000B1072747B906F0080008B146F03C
:1037C00020060398C06AE8612C62D7B9AE71002068
:1037D000E8712146039800F063FC2861E07F010650
:1037E000A07F41EA0041607F41EA0020217F084339
:1037F000E8600020A860A861039828602868C08855
:10380000A88038464BE72DE9FF4F85B004461546A2
:103810009A46DDF818B00020CAF80000204600F0F3
:1038200096FE0490049818B1049809B0BDE8F08F92
:10383000E07908B1E079F8E7A07900F0010008B973
:103840000720F2E7D4E90210401A0290029885425C
:1038500000D9029DBAE021684989A068B0FBF1F265
:1038600001FB1200002877D121684989A068B0FBCC
:10387000F1F021688978491E084000F0FF09B9F18C
:10388000000F17D1A06810B92069039004E06169A6
:10389000206800F03FFB03900398022802D2022028
:1038A000E071C2E70398401C10B90120E071BCE749
:1038B0000398606161692068FFF71EF8064616B933
:1038C0000220E071B1E74E4420684089B5FBF0F872
:1038D000B8F1000F2DD009EB0800216889788842E3
:1038E00003D920688078A0EB09082168487843460E
:1038F00032465946FFF7D4FA10B10120E07194E73F
:10390000A07900F0400078B1A069801B40450BD23F
:10391000A169891B23685B8901FB03B021684A897F
:1039200004F1240100F053FC2068408900FB08F7F3
:1039300042E0A069B04220D0A07900F0400080B100
:1039400021684878012304F12401A269FFF7EAFA0B
:1039500018B10120E07168E710E0A07920F0400084
:10396000A071216848780123324604F12401FFF751
:1039700097FA10B10120E07157E7A66121684989E3
:10398000A068B0FBF1F201FB1200216849890F1A0F
:10399000AF4200D92F4621684989A068B0FBF1F2F7
:1039A00001FB120104F1240008443A46014601904B
:1039B000584600F00CFC00BFBB44A0683844A0602F
:1039C000DAF800003844CAF80000ED1B002D7FF43F
:1039D00042AF002029E72DE9F0410446204600F0DF
:1039E000B6FD0746002F4CD1A07900F0200000283A
:1039F00047D0A07900F0400078B1216848780123D1
:103A000004F12401A269FFF78DFA10B10120BDE88D
:103A1000F081A07920F04000A071E169206800F0F9
:103A2000EDFB0746002F2CD1256AE87A40F02000F4
:103A3000E872207B2877A089010A6977E068010C89
:103A4000A977E068010EE9772846216900F0EAFCD1
:103A500000F0FFFA0646AE75310AE975310C297699
:103A6000310E69760020A8740021E974A07920F055
:103A70002000A071012021680871206800F0DAFCA4
:103A800007463846C3E700002DE9F74F8AB000210A
:103A90000A9801600B9800F0DEFA09900998002856
:103AA00003DA0B200DB0BDE8F08FE949099851F811
:103AB00020400CB90C20F5E70A980460207878B112
:103AC0006078FFF723FA814609F0010040B90C98AD
:103AD00020B109F0040008B10A20E3E70020E1E783
:103AE00000202070099860706078FFF7A7F9814680
:103AF00009F0010008B10320D4E70C9820B109F0C7
:103B0000040008B10A20CDE7607804F10A0202211E
:103B1000FFF7A2F938B96089B0F5007F03DB60894F
:103B2000B0F5805F01DD0120BCE700273946204663
:103B3000FEF790FE0546012D01D09DBB32E0002628
:103B40001AE004F5F77000EB061898F8040070B15D
:103B500098F80B00010698F80A0041EA004198F82D
:103B6000090041EA002098F80810084300E000200E
:103B700002A941F82600761C042EE2D3002606B1E5
:103B8000761E00BF02A850F8267027B1394620469D
:103B9000FEF760FE00E0022005461DB1701C0646DF
:103BA0000428EFD3032D01D101207BE70DB10D20B7
:103BB00078E73B20015D94F83C0041EA00206189F0
:103BC000884201D00D206DE74620015D94F8470042
:103BD00041EA002ABAF1000F0ED194F8570001060D
:103BE00094F8560041EA004194F8550041EA00205B
:103BF00094F8541040EA010AC4F818A04020005D6F
:103C0000E070E078012804D0E078022801D00D208F
:103C100048E7E0780AFB00FA3D20005DA070A0783C
:103C200018B1A078411E084008B10D203AE74120A4
:103C3000015D94F8420041EA002020816089C117AB
:103C400000EBD1614911228992FBF1F301FB1321B1
:103C500009B10D2026E74320015D94F8440041EAB4
:103C600000200890089870B994F85300010694F861
:103C7000520041EA004194F8510041EA002094F8D2
:103C80005010084308903E20015D94F83F0041EA3F
:103C900000200190019808B90D2003E76089C11741
:103CA00000EBD1614911228992FBF1F20199514453
:103CB00011440791DDE90710884201D20D20F1E699
:103CC000DDE90710401AA178B0FBF1FBBBF1000F52
:103CD00001D10D20E6E6012540F6F670834500D3BC
:103CE00002254FF6F670834500D303250BF1020041
:103CF0006061E76101983844206207983844A06207
:103D0000032D16D1208908B10D20CBE694F85F0071
:103D1000010694F85E0041EA004194F85D0041EA32
:103D2000002094F85C10084360626069800006908F
:103D300014E0208908B90D20B4E6206A504460627E
:103D4000022D02D16069400007E0207D00F00100F3
:103D5000616901EB410100EB510006906089401E52
:103D6000069908446189B0FBF1F0A169884201D944
:103D70000D2097E64FF0FF302061E06080206071F9
:103D8000032D5AD194F8601094F8610041EA0020A4
:103D9000012852D1791C204600F030FAE8BB0020FF
:103DA000607194F82E1294F82F0241EA00204AF62E
:103DB0005521884241D13320005D01063220005D4B
:103DC00041EA00413120005D41EA002094F83010C2
:103DD00008432049884230D194F81702010694F82C
:103DE000160241EA004194F8150241EA002094F8D5
:103DF00014120843184988421FD194F81B02010687
:103E000094F81A0241EA004194F8190241EA0020AC
:103E100094F818120843206100E00EE094F81F02A5
:103E2000010694F81E0241EA004194F81D0241EA9D
:103E3000002094F81C120843E060257007480088B1
:103E4000401C80B205490880E08000202AE600007E
:103E50005C00002052526141727241616400002096
:103E60002DE9F3410446019800782F2803D00198EA
:103E700000785C2802D10198401C01900020A060CD
:103E800001980078202807D200212046FEF772FF13
:103E900005460020606128E000BF01A92046FEF72A
:103EA000A3FD054605B11FE02046FEF77BFE054653
:103EB000A069C67A3DB1042D04D100BF06F004000C
:103EC00000B9052510E006F0040000B10CE06769B8
:103ED000F87A00F0100008B9052505E03946206899
:103EE00000F0DEF8A060D8E700BF2846BDE8FC81FE
:103EF00070B504460D46E1B20548FEF7EAFA00BF88
:103F000080210348FEF718FA0028F9D0204670BD3A
:103F1000003801402DE9F05F04460D46022D02D322
:103F20006069A84202D84FF001098FE04FF0FF39D5
:103F30002078012804D002283CD003287ED157E005
:103F40002F4607EB57076089B7FBF0F0216A00EBBB
:103F5000010A5146204600F051F900B175E038469B
:103F60007F1C6189B0FBF1F201FB120104F130000A
:103F700010F801806089B7FBF0F0216A00EB010ABC
:103F80005146204600F03AF900B15EE06089B7FB87
:103F9000F0F100FB117104F13000405C48EA0028A8
:103FA00005F0010010B14FEA181001E0C8F30B0052
:103FB00081464AE0B4F80AA00AEBDA704010B5FB7B
:103FC000F0F0216A00EB010B5946204600F016F98B
:103FD00000B13AE068006189B0FBF1F201FB120127
:103FE00004F130000E183078717840EA01292CE095
:103FF000B4F80AA04FEAEA700AEB90708010B5FBA3
:10400000F0F0216A00EB010B5946204600F0F6F86B
:1040100000B11AE0A8006189B0FBF1F201FB1201C6
:1040200004F130000E18F0780006B17840EA014043
:10403000717840EA01203178084300E002E020F086
:10404000704902E04FF0010900BF00BF4846BDE8DB
:10405000F09F0020704770B502464FF0FF301568A2
:10406000E5B1116800E0491C0D78212D02D30D78CF
:104070003A2DF8D10D783A2D0FD1146814F8015B60
:10408000A5F130030A2B07D28C4205D1022B03D2B3
:1040900018464D1C2946156070BD002000BFFBE787
:1040A00010B502468C7ECB7E44EA03201378032BA6
:1040B00005D10C7D4B7D44EA032340EA034010BD4B
:1040C00000240025FCF7ECFCFCF7F0FF2DE0FCF7EA
:1040D00005FD002829D020211448FCF79FFC002171
:1040E0001348FEF705F813A0FEF734FA0A20FCF790
:1040F000FDF90446B4B115A0FEF72CFA1849194889
:104100000068FEF7EDF9054645B117A0FEF722FA63
:10411000FCF768FE1C48FCF7ABFC06E01BA0FEF7B2
:1041200019FA02E01CA0FEF715FAD0E7000C0140D6
:1041300000100040BFAACABCB2C1B3FDC4DAB2BF0E
:10414000464C4153482E2E2E0A000000BFAACABC7E
:10415000C9FDBCB6B3CCD0F22E2E2E0A0000000052
:10416000C020002018000020C9FDBCB6B3C9B9A604
:10417000A3A10AC2EDC9CFBFAACABCD6F7C8CECE8A
:10418000F12E2E2E2E0A000000780008C9FDBCB6C4
:10419000CAA7B0DCA3A10A00B2C1B3FDC9C8C7F861
:1041A000CAA7B0DCA3A10A00F0B503461C460D4621
:1041B000002000BF161EA2F1010207D014F8017BF7
:1041C00015F801CBA7EB0C06301EF3D0F0BD70B58F
:1041D00003460C4603E014F8015B03F8015B151E6F
:1041E000A2F10102F7D170BD30B5034601E003F83A
:1041F000011B141EA2F10102F9D130BD70B50446B5
:104200000D460026E06AA84210D0204600F076F95C
:1042100006465EB9607801232A4604F13001FEF7B4
:104220003FFE10B14FF0FF350126E562304670BD0C
:104230002DE9F05F04460E461746022E02D3606950
:10424000B04202D84FF00208B3E02078012804D031
:10425000022852D0032872D172E0B14609EB590905
:104260006089B9FBF0F0216A00EB010A5146204653
:10427000FFF7C4FF8046B8F1000F00D098E0484631
:1042800009F101096189B0FBF1F201FB120104F1AE
:1042900030000D1806F0010020B1F9B2287861F362
:1042A0001F1000E038462870012020716089B9FB9A
:1042B000F0F0216A00EB010A51462046FFF79EFF0D
:1042C0008046B8F1000F00D072E06089B9FBF0F1D0
:1042D00000FB119104F130000D1806F0010010B13F
:1042E000C7F3071005E0287800F0F000C7F30321BA
:1042F00008432870012020715AE0B4F80AA00AEBA4
:10430000DA704010B6FBF0F0216A00EB010B594661
:104310002046FFF773FF8046B8F1000F00D047E05A
:1043200070006189B0FBF1F201FB120104F1300071
:104330000D182F70380A68700120207138E034E0C1
:10434000B4F80AA04FEAEA700AEB90708010B6FB4E
:10435000F0F0216A00EB010B59462046FFF74EFFB3
:104360008046B8F1000F00D022E0B0006189B0FBB8
:10437000F1F201FB120104F130000D18E87800069B
:10438000A97840EA0140697840EA01202978084389
:1043900000F0704007432F70380A6870380CA8701E
:1043A000380EE8700120207102E04FF0020800BFD3
:1043B00000BF4046BDE8F09F2DE9F04104460E469F
:1043C000022E02D36069B04201D8022727E00027FD
:1043D00021E031462046FFF79DFD054605B91DE069
:1043E000012D01D1022719E0681C08B9012715E049
:1043F000002231462046FFF71BFF074607B10DE0BC
:104400002069401C30B12069401C2061607940F077
:10441000010060712E466069B042DAD800BF3846AC
:10442000BDE8F08181760B0AC3760A0C02750B0E8B
:104430004375704770B50446204600F05FF80546A6
:10444000002D59D1207803284FD1607901284CD113
:104450006289002104F13000FFF7C6FE552184F87F
:104460002E12AA2184F82F12522084F830005221F3
:104470003120015561213220015541213320015560
:10448000722184F8141284F81512412184F816124E
:10449000612184F81712217C84F81812208A010AFD
:1044A00084F819122069010C84F81A122069010E8F
:1044B00084F81B12217B84F81C12A089010A84F85D
:1044C0001D12E068010C84F81E12E068010E84F8E9
:1044D0001F12E069401CE0626078012304F13001A2
:1044E000E26AFEF71FFD002060716078002211462D
:1044F000FEF7B2FC00B10125284670BD2DE9F04160
:10450000044600272079F8B1E56A607801232A463D
:1045100004F13001FEF706FD08B1012714E0002088
:104520002071206A281AA16988420DD2E67809E034
:10453000A0690544607801232A4604F13001FEF7A2
:10454000F1FC761E022EF3D23846BDE8F08170B53C
:1045500005462C4684B1206870B12068007858B1B7
:104560002068C088A188884206D121684878FEF773
:10457000CDFC00F0010008B1092070BD0020FCE76F
:10458000000400020001800040002000100008002C
:10459000040002000000008000400020001000081D
:1045A000004000200010000800040002CC45000874
:1045B000000000206C000000742500083846000848
:1045C0006C000020F42C000084250008000000008E
:1045D0000102030401020304060708090204060895
:1045E00000000000000000000D0AD0C2BDA8CEC42B
:1045F000BCFE0D0A00000000007800080002000068
:1046000000000000000000000000000000000000AA
:10461000000000000000000000000000000000009A
:10462000000000000000000000000000000000008A
:08463000000000000000000082
:0400000508000131BD
:00000001FF
